:100000000C944A000C9469000C9469000C946900EB
:100010000C9469000C9469000C9469000C946900BC
:100020000C9469000C9469000C9469000C946900AC
:100030000C9469000C9469000C9469000C9469009C
:100040000C9469000C9469000C945A030C94690098
:100050000C94AE040C9469000C9469000C94690033
:100060000C9469000C947F050C9469000C94690051
:100070000C9469000C9469000C9469000C9469005C
:100080000C9469000C9469000C9469000C9469004C
:100090000C94690011241FBECFEFD0E1DEBFCDBFAD
:1000A00011E0A0E0B1E0E8E8FCE000E00BBF02C036
:1000B00007900D92A031B107D9F722E0A0E1B1E09D
:1000C00001C01D92AC34B207E1F70E94D8050C9430
:1000D00042060C9400000E946C0468E00C949704A3
:1000E000FC0180910F0197B1982B97B928B190919D
:1000F0000F0180910F0190959223982B98B9608100
:10010000718183E090E00C945704FC0180910F0111
:1001100090910E01982790930E0128B190910F01B4
:1001200080910E0190959223982B98B960817181EE
:1001300083E090E00C945704FC0180910D0197B18D
:10014000982B97B928B190910D0180910D01909550
:100150009223982B98B96081718184E090E00C948F
:100160005704FC0180910D0190910C019827909308
:100170000C0128B190910D0180910C019095922372
:10018000982B98B96081718184E090E00C945704B9
:10019000FC0180910B0197B1982B97B928B19091F0
:1001A0000B0180910B0190959223982B98B9608157
:1001B000718181E090E00C945704FC0180910B0167
:1001C00090910A01982790930A0128B190910B0110
:1001D00080910A0190959223982B98B96081718142
:1001E00081E090E00C945704FC018091090197B1E3
:1001F000982B97B928B190910901809109019095A8
:100200009223982B98B96081718181E090E00C94E1
:100210005704FC018091090190910801982790935F
:10022000080128B1909109018091080190959223CD
:10023000982B98B96081718181E090E00C9457040B
:10024000FC018091070197B1982B97B928B1909143
:1002500007018091070190959223982B98B96081AE
:10026000718181E090E00C945704FC0180910701BA
:100270009091060198279093060128B1909107016B
:100280008091060190959223982B98B96081718195
:1002900081E090E00C945704FC018091050197B136
:1002A000982B97B928B190910501809105019095FF
:1002B0009223982B98B96081718181E090E00C9431
:1002C0005704FC01809105019091040198279093B7
:1002D000040128B190910501809104019095922329
:1002E000982B98B96081718181E090E00C9457045B
:1002F000FC018091030197B1982B97B928B1909197
:1003000003018091030190959223982B98B9608105
:10031000718181E090E00C945704FC01809103010D
:100320009091020198279093020128B190910301C6
:100330008091020190959223982B98B960817181E8
:1003400081E090E00C945704FC018091010197B189
:10035000982B97B928B19091010180910101909556
:100360009223982B98B96081718181E090E00C9480
:100370005704FC018091010190910001982790930E
:10038000000128B190910101809100019095922384
:10039000982B98B96081718181E090E00C945704AA
:1003A00081E08093D80082E08093E20084E0809333
:1003B000E30083E18093E4008FE78093DF008FEF19
:1003C0008093DE0080EB8093DB0080E04FEF5FEFF7
:1003D000BA018093ED001092EE004093F400509328
:1003E000F5006093F6007093F7001092F000109201
:1003F000F1001092F2001092F3001092EF00805F73
:10040000803F39F782E08093D8000895CF92DF9241
:10041000EF92FF929C01AB016091ED0080916C0125
:100420008E3008F053C0E0916C018BE0E89FF00142
:100430001124E659FE4F3483238380916C018F5F32
:1004400080936C0180916C018295807F8093ED0098
:10045000C090F400D090F500E090F600F090F70026
:1004600040955095CA01B0E0A0E0880F991FAA1FDF
:10047000BB1F880F991FAA1FBB1F880F991FAA1F98
:10048000BB1F8C259D25AE25BF258093F40090933E
:10049000F500A093F600B093F70050E040E0220F83
:1004A000331F441F551F220F331F441F551F220F98
:1004B000331F441F551F2093F0003093F1004093E9
:1004C000F2005093F30080E98093EF006093ED0019
:1004D000FF90EF90DF90CF90089520916A013091C6
:1004E0006B0181E0232B09F480E008958F929F92A5
:1004F000BF92DF92EF92FF920F931F93CF93DF9300
:100500004C019B01EA0180916C018823E1F080910C
:100510006A0190916B01BC016170772780FD5EC01C
:1005200040E061E070E008C080916A0190916B0149
:1005300086239723892B91F4660F771F4F5F809155
:100540006C01481788F3DF91CF911F910F91FF90B5
:10055000EF90DF90BF909F908F9008957B01E09483
:10056000F094842F90E0EBE0E89FA001E99F500D0C
:10057000112446595E4F8A010D5F1F4FFA013596CF
:1005800080916A0190916B018E219F2190936B0164
:1005900080936A01D8018D919C91D4018D939C9395
:1005A000808188838081B12C882379F08B2D90E025
:1005B000DA01A80FB91F1696DC90820F931FDC0199
:1005C000DC92B3948081B81688F380916A0190918F
:1005D0006B0186239723892B99F6B5CF90E080E0B5
:1005E0004EEFE42EFF24FA94BECFCF939C0150919E
:1005F000ED001092ED008091DC0080FD2EC04423C0
:1006000071F0FB01CB0101966FEF640F680F792F3A
:10061000711D81918093FA00E617F707D1F7C901A0
:10062000B0E0A0E0880F991FAA1FBB1F880F991F79
:10063000AA1FBB1F880F991FAA1FBB1F8093F00022
:100640009093F100A093F200B093F30040654093C3
:10065000EF005093ED00CF910895C09110018BE011
:10066000C89FD0011124A05FBE4F13963C932E93D8
:10067000129714964C931497442369F0FB0190E071
:1006800080E0BD012191DB01A80FB91F15962C93C5
:1006900001968417B8F3C73038F4CF5FC0931001C8
:1006A0005093ED00CF910895109210015093ED00FA
:1006B000CF9108950F920FB60F921F9211240F93AE
:1006C0000BB70F931F932F933F934F935F936F93AA
:1006D0007F938F939F93AF93BF93EF93FF9350912B
:1006E000ED001092ED00409111018091EE0086FF27
:1006F00061C080911001841709F45CC0642F70E020
:100700008BE0489F90011124205F3E4FF9018481C6
:10071000882369F080E0D9011496F901E80FF11DF2
:1007200095819093FA008F5F9C918917B0F38BE0CD
:10073000869FF001879FF00D1124E05FFE4F8281BC
:100740009381B0E0A0E0880F991FAA1FBB1F880FFC
:10075000991FAA1FBB1F880F991FAA1FBB1F809339
:10076000F0009093F100A093F200B093F300848125
:1007700080658093EF00473008F074C04F5F40936E
:1007800011011092EE005093ED00FF91EF91BF9197
:10079000AF919F918F917F916F915F914F913F9119
:1007A0002F911F910F910BBF0F911F900F900FBEB4
:1007B0000F90189520916C012295207F203108F32D
:1007C00080E103C0805F2817E0F28093ED009091F4
:1007D000EE0095FFF7CF60916A0170916B018295F1
:1007E0008F70815021E030E0082E02C0220F331FAD
:1007F0000A94E2F7262B372B30936B0120936A0182
:100800000091F0001091F1002091F2003091F3007E
:1008100093E036952795179507959A95D1F79BE024
:10082000899FF0011124E659FE4F148303838091C0
:10083000EF008F7085838581882371F020E0CF01E0
:10084000DF0115963091FA00FC01E20FF11D3683AD
:100850002F5F3C912317B0F38091EF008068809365
:10086000EF008FCF109211018CCF90E080E04FEF1E
:100870005FEF9C012F5F3F4FF901EE0FFF1FE95F14
:10088000FD4F51834083880F991FFC01E75EFD4FA8
:1008900051834083C9012830310559F789E092E03E
:1008A000909308028093070289E192E00895AC01D9
:1008B0009FB790788FB789278FBF2091070230911B
:1008C0000802440F551F240F351FF90171836083FF
:1008D0008FB7982B9FBF08958091070290910802CF
:1008E00022E08930920749F089E092E09093080273
:1008F0008093070289E192E0089529E132E0309384
:10090000080220930702089588E084B98FEF8EBD16
:100910001092300210922F0210922E0210922D028D
:1009200010922A021092290280EC8CBD0895FC01DD
:100930009093300280932F02615060932E021092A8
:100940002D0280818EBD089590932C0280932B02FE
:10095000089590932A028093290208951F920F927E
:100960000FB60F9211240BB60F922F933F934F9314
:100970005F936F937F938F939F93AF93BF93EF9307
:10098000FF9380912D02811107C0E0912B02F0911D
:100990002C02309709F0099590912D0280912E023A
:1009A000981728F580912D028F5F80932D028091FA
:1009B0002F0290913002009739F0E0912D02E80F5C
:1009C000F92FF11D80818EBDFF91EF91BF91AF9105
:1009D0009F918F917F916F915F914F913F912F9157
:1009E0000F900BBE0F900FBE0F901F901895109296
:1009F0002D02E0912902F0912A023097C1F2099567
:100A0000D6CF90E080FF11C02091330231E0320F49
:100A10003093330230E02F5F3F4FF901EE0FFF1F9D
:100A2000E20FF31FEF5CFD4F908386959F5F983038
:100A300049F780937E008091310290E00196FC019D
:100A4000EE0FFF1FE80FF91FEF5CFD4F8081806400
:100A500080937C008FE880937A0010927B00089549
:100A60000F931F93CF93DF938C01EB0160913202C0
:100A7000262F30E0C9010196FC01EE0FFF1FE80FA1
:100A8000F91FEF5CFD4F808187FD06C080E0DF919C
:100A9000CF911F910F910895A901440F551F420F47
:100AA000531F4B5C5D4F80818F7080838081D801A4
:100AB0008C93DA018D919C9199838883808187FD45
:100AC000F2CF809133028150990B281739074CF4EB
:100AD0006F5F6093320281E0DF91CF911F910F91A0
:100AE00008951092320281E0DF91CF911F910F9112
:100AF0000895EAE7F0E080818064808308951F9282
:100B00001FB61F9211242F932BB72F933F934F9310
:100B10008F939F93EF93FF9340913102842F90E046
:100B20009C012F5F3F4FF901EE0FFF1FE20FF31FF4
:100B3000EF5CFD4F20812068208320917800309168
:100B40007900FC01EE0FFF1FE80FF91FEF5CFD4F6E
:100B500035832483209133022150330B821793076E
:100B600024F54F5F4093310220917C008091310247
:100B700090E00196FC01EE0FFF1FE80FF91FEF5CFC
:100B8000FD4F9081822F807F9F70892B80937C0006
:100B9000FF91EF919F918F914F913F912F912BBF9B
:100BA0002F911F901FBE1F90189510923102DCCF1D
:100BB000CDB7DEB72E970FB6F894DEBF0FBECDBF10
:100BC0000E9484040E94350468E00E9497048BE62A
:100BD00090E00E94A9040E94D0016FEF7FEF88E0AF
:100BE00090E00E9406026FEF7FEF89E090E00E94A4
:100BF00006021092800085E08093810010928200AE
:100C000010926F008EEF98E0909389008093880097
:100C100083E00E940105099A119A78940E946D025E
:100C20008823D9F0AE01425F5F4FBE016F5F7F4FF7
:100C3000CE010B960E9476028B859C8588309105AB
:100C4000D1F0099759F7698170E082E090E00E9445
:100C500057040E946D028111E5CFBE01675F7F4F8F
:100C6000CE010D960E94300570E060E083E090E0D8
:100C70000E945704D3CF698170E081E090E00E9428
:080C80005704CCCFF894FFCF1C
:100C8800808040402020101008080404020201015E
:00000001FF
