:100000000C944A000C945C000C945C000C945C0012
:100010000C945C000C945C000C945C000C945C00F0
:100020000C945C000C945C000C945C000C945C00E0
:100030000C945C000C945C000C945C000C945C00D0
:100040000C945C000C945C000C94ED010C945C002E
:100050000C9441030C945C000C945C000C945C00C8
:100060000C945C000C9418040C945C000C945C00E0
:100070000C945C000C945C000C945C000C945C0090
:100080000C945C000C945C000C945C000C945C0080
:100090000C945C0011241FBECFEFD0E1DEBFCDBFBA
:1000A00022E0A0E0B1E001C01D92AC33B207E1F75D
:1000B0000E9483040C94FB040C9400000E94FF0235
:1000C00060E20C942A0381E08093D80082E0809360
:1000D000E20084E08093E30083E18093E4008FE713
:1000E0008093DF008FEF8093DE0080EB8093DB0056
:1000F00080E04FEF5FEFBA018093ED001092EE00C9
:100100004093F4005093F5006093F6007093F7006D
:100110001092F0001092F1001092F2001092F30091
:100120001092EF00805F803F39F782E08093D80023
:100130000895CF92DF92EF92FF929C01AB01609104
:10014000ED0080915C018E3008F053C0E0915C01BD
:100150008BE0E89FF0011124E65AFE4F348323839D
:1001600080915C018F5F80935C0180915C0182953E
:10017000807F8093ED00C090F400D090F500E09077
:10018000F600F090F70040955095CA01B0E0A0E06D
:10019000880F991FAA1FBB1F880F991FAA1FBB1F7B
:1001A000880F991FAA1FBB1F8C259D25AE25BF2533
:1001B0008093F4009093F500A093F600B093F700BD
:1001C00050E040E0220F331F441F551F220F331F02
:1001D000441F551F220F331F441F551F2093F0004B
:1001E0003093F1004093F2005093F30080E9809344
:1001F000EF006093ED00FF90EF90DF90CF900895B7
:1002000020915A0130915B0181E0232B09F480E0B9
:1002100008958F929F92BF92DF92EF92FF920F9379
:100220001F93CF93DF934C019B01EA0180915C0106
:100230008823E1F080915A0190915B01BC016170CB
:10024000772780FD5EC040E061E070E008C08091EB
:100250005A0190915B0186239723892B91F4660FB5
:10026000771F4F5F80915C01481788F3DF91CF9132
:100270001F910F91FF90EF90DF90BF909F908F9014
:1002800008957B01E094F094842F90E0EBE0E89FE8
:10029000A001E99F500D1124465A5E4F8A010D5F5F
:1002A0001F4FFA01359680915A0190915B018E2182
:1002B0009F2190935B0180935A01D8018D919C916D
:1002C000D4018D939C93808188838081B12C882375
:1002D00079F08B2D90E0DA01A80FB91F1696DC900B
:1002E000820F931FDC01DC92B3948081B81688F3EF
:1002F00080915A0190915B0186239723892B99F66F
:10030000B5CF90E080E04EEFE42EFF24FA94BECF0C
:10031000CF939C015091ED001092ED008091DC0094
:1003200080FD2EC0442371F0FB01CB0101966FEFDD
:10033000640F680F792F711D81918093FA00E61781
:10034000F707D1F7C901B0E0A0E0880F991FAA1FF5
:10035000BB1F880F991FAA1FBB1F880F991FAA1FB9
:10036000BB1F8093F0009093F100A093F200B09334
:10037000F30040654093EF005093ED00CF91089556
:10038000C09100018BE0C89FD0011124A050BF4F45
:1003900013963C932E93129714964C9314974423E0
:1003A00069F0FB0190E080E0BD012191DB01A80F25
:1003B000B91F15962C9301968417B8F3C73038F4FB
:1003C000CF5FC09300015093ED00CF91089510923C
:1003D00000015093ED00CF9108950F920FB60F9248
:1003E0001F9211240F930BB70F931F932F933F93DB
:1003F0004F935F936F937F938F939F93AF93BF932D
:10040000EF93FF935091ED001092ED0040910101A8
:100410008091EE0086FF61C080910001841709F48D
:100420005CC0642F70E08BE0489F90011124205045
:100430003F4FF9018481882369F080E0D901149647
:10044000F901E80FF11D95819093FA008F5F9C915F
:100450008917B0F38BE0869FF001879FF00D112480
:10046000E050FF4F82819381B0E0A0E0880F991F98
:10047000AA1FBB1F880F991FAA1FBB1F880F991F98
:10048000AA1FBB1F8093F0009093F100A093F2008D
:10049000B093F300848180658093EF00473008F0CB
:1004A00074C04F5F409301011092EE005093ED0035
:1004B000FF91EF91BF91AF919F918F917F916F913C
:1004C0005F914F913F912F911F910F910BBF0F9112
:1004D0001F900F900FBE0F90189520915C012295F0
:1004E000207F203108F380E103C0805F2817E0F20D
:1004F0008093ED009091EE0095FFF7CF60915A0147
:1005000070915B0182958F70815021E030E0082E60
:1005100002C0220F331F0A94E2F7262B372B3093A9
:100520005B0120935A010091F0001091F10020919D
:10053000F2003091F30093E03695279517950795D3
:100540009A95D1F79BE0899FF0011124E65AFE4F5E
:10055000148303838091EF008F70858385818823C6
:1005600071F020E0CF01DF0115963091FA00FC0117
:10057000E20FF11D36832F5F3C912317B0F380917A
:10058000EF0080688093EF008FCF109201018CCF35
:1005900090E080E04FEF5FEF9C012F5F3F4FF9014C
:1005A000EE0FFF1FE950FE4F51834083880F991FC4
:1005B000FC01E75FFD4F51834083C90128303105BD
:1005C00059F789EF91E09093F8018093F70189E062
:1005D00092E00895AC019FB790788FB789278FBFBD
:1005E0002091F7013091F801440F551F240F351F5A
:1005F000F901718360838FB7982B9FBF0895809115
:10060000F7019091F80121E0893F920749F089EFC5
:1006100091E09093F8018093F70189E092E00895CA
:1006200029E032E03093F8012093F701089588E043
:1006300084B98FEF8EBD1092200210921F0210928B
:100640001E0210921D0210921A021092190280ECE2
:100650008CBD0895FC019093200280931F0261508D
:1006600060931E0210921D0280818EBD08959093AA
:100670001C0280931B02089590931A028093190222
:1006800008951F920F920FB60F9211240BB60F927E
:100690002F933F934F935F936F937F938F939F938A
:1006A000AF93BF93EF93FF9380911D02811107C019
:1006B000E0911B02F0911C02309709F0099590918E
:1006C0001D0280911E02981728F580911D028F5FF0
:1006D00080931D0280911F0290912002009739F0B3
:1006E000E0911D02E80FF92FF11D80818EBDFF9171
:1006F000EF91BF91AF919F918F917F916F915F919A
:100700004F913F912F910F900BBE0F900FBE0F9006
:100710001F90189510921D02E0911902F0911A0293
:100720003097C1F20995D6CF90E080FF11C020919B
:10073000230231E0320F3093230230E02F5F3F4F2E
:10074000F901EE0FFF1FE20FF31FEF5DFD4F9083E6
:1007500086959F5F983049F780937E0080912102B3
:1007600090E00196FC01EE0FFF1FE80FF91FEF5D0F
:10077000FD4F8081806480937C008FE880937A00B5
:1007800085E080937B0080917A00806280937A007C
:1007900008950F931F93CF93DF938C01EB0160912A
:1007A0002202262F30E0C9010196FC01EE0FFF1F47
:1007B000E80FF91FEF5DFD4F808187FD06C080E0E7
:1007C000DF91CF911F910F910895A901440F551FFB
:1007D000420F531F4B5D5D4F80818F7080838081FE
:1007E000D8018C93DA018D919C91998388838081C3
:1007F00087FDF2CF809123028150990B281739078A
:100800004CF46F5F6093220281E0DF91CF911F91E2
:100810000F9108951092220281E0DF91CF911F91F4
:100820000F910895EAE7F0E0808180648083089565
:100830001F921FB61F9211242F932BB72F933F9314
:100840004F938F939F93EF93FF9340912102809159
:100850008400909185002091880030918900821B4E
:10086000930B909385008093840086B391E0892751
:1008700086BB842F90E09C012F5F3F4FF901EE0F64
:10088000FF1FE20FF31FEF5DFD4F208120682083E3
:100890002091780030917900FC01EE0FFF1FE80FE6
:1008A000F91FEF5DFD4F35832483209123022150F2
:1008B000330B8217930724F54F5F40932102209159
:1008C0007C008091210290E00196FC01EE0FFF1F59
:1008D000E80FF91FEF5DFD4F9081822F807F9F70A1
:1008E000892B80937C00FF91EF919F918F914F9185
:1008F0003F912F912BBF2F911F901FBE1F901895D6
:1009000010922102DCCFCDB7DEB72E970FB6F89448
:10091000DEBF0FBECDBF0E9417030E94C80260E178
:100920000E942A038EE590E00E9437030E94630034
:100930006FEF7FEF88E090E00E9499006FEF7FEF0C
:1009400089E090E00E9499001092800085E08093F9
:1009500081001092820010926F0080E092E09093EC
:1009600089008093880080EC0E949403099A119A70
:1009700078940E9400018823D9F0AE01425F5F4F56
:10098000BE016F5F7F4FCE010B960E9409018B85E0
:100990009C858830910509F1099759F7698170E0C4
:1009A00082E090E00E94EA020E9400018111E5CFFE
:1009B000BE01675F7F4FCE010D960E94C903882359
:1009C000C1F28D85863081F0873099F669857A8508
:1009D00087E090E00E94EA02CCCF698170E081E07C
:1009E00090E00E94EA02C5CF69857A8586E090E0B2
:0A09F0000E94EA02BECFF894FFCF88
:00000001FF
