:1000000049C0000064C0000062C0000060C0000081
:100010005EC000005CC000005AC0000058C0000074
:1000200056C0000054C0000052C0000050C0000084
:100030004EC000004CC000004AC0000048C0000094
:1000400046C0000044C000006FC1000040C0000076
:10005000ACC200003CC000003AC0000038C0000044
:1000600036C0000034C0000032C0000030C00000C4
:100070002EC000002CC000002AC0000028C00000D4
:1000800026C0000024C0000022C0000020C00000E4
:100090001EC0000011241FBECFEFD0E1DEBFCDBFD8
:1000A00011E0A0E0B1E0EAE4FAE000E00BBF02C03A
:1000B00007900D92A031B107D9F722E0A0E1B1E09D
:1000C00001C01D92A132B207E1F716D4BCC498CF8B
:1000D000EF92FF920F931F93CF93DF9321E0209332
:1000E000D80022E02093E20024E02093E30023E103
:1000F0002093E4002FE72093DF002FEF2093DE0012
:1001000020EB2093DB001092ED001092EE004FEFF9
:100110005FEFBA014093F4005093F5006093F6004E
:100120007093F700A0E0B0E0880F991FAA1FBB1FD3
:10013000880F991FAA1FBB1F880F991FAA1FBB1FDB
:100140008093F0009093F100A093F200B093F3003D
:1001500080E18093EF000DEE10E02EEE30E0C4EF72
:10016000D0E0A0EFB0E00F2EFFEEEF2EF12CF02D3F
:10017000F8018083F9011082488359836A837B8365
:100180001D921D921D921C921397F7011082805FA1
:10019000803F71F782E08093D800DF91CF911F916B
:1001A0000F91FF90EF9008953091ED0020915C0148
:1001B0002E3098F5AAE5B1E01296EC9112972BE05B
:1001C000E29FF0011124E65AFE4F94838383129636
:1001D0002C9112972F5F12962C93129712962C91B6
:1001E0002295207F2093ED00A0E0B0E0880F991FBA
:1001F000AA1FBB1F880F991FAA1FBB1F880F991F1B
:10020000AA1FBB1F8093F0009093F100A093F2000F
:10021000B093F30080E98093EF003093ED000895F0
:1002200020915A0130915B0181E0232B09F480E099
:1002300008958F929F92AF92BF92CF92DF92EF92EA
:10024000FF920F931F93CF93DF9320915C012223A2
:1002500009F45DC020915A0130915B0120FD0EC070
:10026000A0E001E010E0EAE5F1E04AC02081318140
:1002700020233123232B09F443C003C0A0E001E075
:1002800010E00F2EFAE5EF2EF1E0FF2EF02D6801C1
:10029000C094D0942BE0A29FD0011124A65ABE4F47
:1002A0005D01E3E0AE0EB11CED012596F701208162
:1002B00031812C213D2131832083F5012081318141
:1002C000FC01318320832881FA01208328812223A5
:1002D00079F0912C292D30E0FD01E20FF31F86808B
:1002E000260F371FF901808293942881921690F38C
:1002F000F7012081318120233123232BB9F607C058
:10030000000F111FAF5F2281A21708F4AFCFDF915A
:10031000CF911F910F91FF90EF90DF90CF90BF9002
:10032000AF909F908F9008951F920F920FB60F92EB
:1003300011240BB60F922F933F934F936F937F939C
:100340008F939F93AF93BF93CF93DF93EF93FF93DD
:10035000EDEEF0E0408110828091EE0086FF43C018
:10036000E0E1F1E0918180819817E9F1609111015C
:1003700070E0FB01EE0FFF1FEE0FFF1FEE0FFF1FE0
:10038000E60FF71FE05FFE4F8281882379F080E05F
:100390009F01CAEFD0E0DF011296F901E80FF11DCD
:1003A000938198838F5F9C918917B8F3FB01EE0FBF
:1003B000FF1FEE0FFF1FEE0FFF1F6E0F7F1FFB01D2
:1003C000E05FFE4F828180658093EF008091110194
:1003D000873030F4E0E1F1E081818F5F818361C09B
:1003E000109211015EC090915C019295907F9031C6
:1003F00008F457C080E18093ED008091EE0085FD08
:100400000BC0E0E1CDEED0E0AEEEB0E046C0E88358
:100410008C9185FF42C001C0E0E1AAE5B1E02D91D9
:100420003C911197E295EF70E15081E090E00E2E43
:1004300002C0880F991F0A94E2F7822B932B119622
:100440009C938E938091EF008F706E2F70E09BE0F5
:10045000E99FF0011124E65AFE4F858385818823A8
:10046000B1F080E0CAEFD0E09BE0969F9001979FAB
:10047000300D1124265A3E4FD90115969881F90165
:10048000E80FF11D96838F5F9C918917B8F3EFEE0B
:10049000F0E080818068808304C0E05F9E1708F0F0
:1004A000B6CF1092EE004093ED00FF91EF91DF91F7
:1004B000CF91BF91AF919F918F917F916F914F910C
:1004C0003F912F910F900BBE0F900FBE0F901F907A
:1004D000189580E090E04FEF5FEF9C012F5F3F4F5A
:1004E000F901EE0FFF1FE950FE4F51834083880F43
:1004F000991FFC01E75FFD4F51834083C9012830FC
:10050000310559F789EF91E09093F8018093F70155
:1005100089E092E00895E091F701F091F80190E010
:10052000880F991FE80FF91F7183608308958091E8
:10053000F7019091F801895F914049F489E092E0D8
:100540009093F8018093F70189EF91E0089589EF86
:1005500091E09093F8018093F70189E092E008958B
:1005600088E084B98FEF8EBD1092200210921F0296
:1005700010921E0210921D0210921A02109219027D
:1005800080EC8CBD08959093200280931F026150EF
:1005900060931E0210921D02FC0180818EBD0895A1
:1005A00090931A028093190208951F920F920FB62A
:1005B0000F9211240BB60F922F933F934F935F939B
:1005C0006F937F938F939F93AF93BF93EF93FF931B
:1005D00080911D02811107C0E0911B02F0911C0265
:1005E000309709F0099590911D0280911E0298178D
:1005F00030F480911D028F5F80931D0209C010921C
:100600001D02E0911902F0911A02309709F0099544
:1006100080911F0290912002009739F020911D02D5
:10062000FC01E20FF11D80818EBDFF91EF91BF9122
:10063000AF919F918F917F916F915F914F913F917A
:100640002F910F900BBE0F900FBE0F901F9018951B
:100650006EDF68E098CF0895FC0180910F0197B19B
:10066000982B97B938B190910F0120910F01909577
:100670009323922B98B96081718183E04CCF0895C8
:10068000FC0180910F0190910E01982790930E012B
:1006900038B190910F0120910E0190959323922BE8
:1006A00098B96081718183E036CF0895FC01809113
:1006B0000D0197B1982B97B938B190910D01209108
:1006C0000D0190959323922B98B96081718184E0FC
:1006D00022CF0895FC0180910D0190910C01982783
:1006E00090930C0138B190910D0120910C019095DF
:1006F0009323922B98B96081718184E00CCF089587
:10070000FC0180910B0197B1982B97B938B190916A
:100710000B0120910B0190959323922B98B9608146
:10072000718181E0F8CE0895FC0180910B019091D8
:100730000A01982790930A0138B190910B012091FA
:100740000A0190959323922B98B96081718181E081
:10075000E2CE0895FC018091090197B1982B97B9D9
:1007600038B1909109012091090190959323922B22
:1007700098B96081718181E0CECE0895FC018091AD
:1007800009019091080198279093080138B1909140
:1007900009012091080190959323922B98B96081CB
:1007A000718181E0B8CE0895FC018091070197B175
:1007B000982B97B938B19091070120910701909536
:1007C0009323922B98B96081718181E0A4CE089522
:1007D000FC018091070190910601982790930601F2
:1007E00038B1909107012091060190959323922BA7
:1007F00098B96081718181E08ECE0895FC0180916D
:10080000050197B1982B97B938B1909105012091C6
:10081000050190959323922B98B96081718181E0B5
:100820007ACE0895FC0180910501909104019827EA
:100830009093040138B190910501209104019095A5
:100840009323922B98B96081718181E064CE0895E1
:10085000FC018091030197B1982B97B938B1909121
:1008600003012091030190959323922B98B9608105
:10087000718181E050CE0895FC0180910301909137
:10088000020198279093020138B1909103012091C1
:10089000020190959323922B98B96081718181E038
:1008A0003ACE0895FC018091010197B1982B97B938
:1008B00038B1909101012091010190959323922BE1
:1008C00098B96081718181E026CE0895FC01809104
:1008D00001019091000198279093000138B1909107
:1008E00001012091000190959323922B98B960818A
:1008F000718181E010CE0895CF93DF93CDB7DEB73D
:100900002D970FB6F894DEBF0FBECDBF8FEF9FE7D8
:100910009A83898325DEDDDD68E035DE88E293E0B9
:100920003FDE80E090E0D4DB88E090E03DDC80E1D9
:1009300090E03ADC80E290E037DC80E490E034DC68
:1009400080E890E031DC80E091E02EDC80E092E015
:100950002BDC80E094E028DC62E0CE0101967CDEB6
:1009600062E0CE010196A2DE62E0CE010196C8DE11
:1009700062E0CE010196EEDE62E0CE01019614DF68
:1009800062E0CE0101963ADF62E0CE01019660DFBF
:1009900062E0CE01019686DF789451C0AE01435FDC
:1009A0005F4FBE016B5F7F4FCE01039642DC8B81B0
:1009B0009C818034910559F150F480319105E9F022
:1009C00080329105F9F0089709F039C011C08115FE
:1009D00021E0920731F120F480389105E9F02FC031
:1009E000811522E0920711F18115944021F127C071
:1009F0006D85CE01059644DE22C06D85CE0105963B
:100A000069DE1DC06D85CE0105968EDE18C06D8530
:100A1000CE010596B3DE13C06D85CE010596D8DEF6
:100A20000EC06D85CE010596FDDE09C06D85CE0137
:100A3000059622DF04C06D85CE01059647DFF0DB09
:0A0A40008111ACCFFCCFF894FFCF7A
:100A4A00808040402020101008080404020201019E
:00000001FF
