:1000000049C0000057C0000055C0000053C00000A8
:1000100051C000004FC000004DC000004BC00000A8
:1000200049C0000047C0000045C0000043C00000B8
:1000300041C000003FC000003DC000003BC00000C8
:1000400039C0000037C000005DC2000033C00000AE
:10005000C8C300002FC000002DC000002BC000004E
:1000600029C00000AFC0000025C0000023C0000070
:1000700021C000001FC000001DC000001BC0000008
:1000800019C0000017C0000015C0000013C0000018
:1000900011C0000011241FBECFEFD0E1DEBFCDBFE5
:1000A00022E0A0E0B1E001C01D92AC33B207E1F75D
:1000B000EFD343C4A5CF90E0A0E0B1E080FF14C02F
:1000C00012962C91129731E0320F12963C931297B0
:1000D00030E02F5F3F4FF901EE0FFF1F2E0F3F1F44
:1000E000F901E050FF4F908386959F5F983031F77C
:1000F00080937E008091000190E00196FC01EE0F5C
:10010000FF1F8E0F9F1FFC01E050FF4F8081806416
:1001100080937C00EAE7F0E08FE8808385E08093BD
:100120007B0080818062808308950F931F93CF931B
:10013000DF938C01EB0180910101482F50E09A017F
:100140002F5F3F4FF901EE0FFF1F2E0F3F1FF901E9
:10015000E050FF4F908199237CF5FA0131969F0181
:10016000220F331FE20FF31FE050FF4FBA01660F5B
:10017000771F640F751F6C5F7E4F90819F70908317
:100180009081D8019C93DB012D913C913983288388
:100190009081992394F32091020130E0215031099C
:1001A000421753072CF48F5F8093010181E005C053
:1001B0001092010181E001C080E0DF91CF911F9199
:1001C0000F9108951F920F920FB60F9211240BB644
:1001D0000F922F933F934F938F939F93AF93BF9320
:1001E000EF93FF93A0E0B1E04C91E4E8F0E0808170
:1001F00091812091880030918900821B930B91831B
:10020000808396B381E0892786BB242F30E0F901F3
:100210003196CF01880F991FE80FF91FE050FF4F6B
:100220008081806880838091780090917900F901C5
:10023000EE0FFF1FE20FF31FE050FF4F9583848303
:1002400012968C9190E001972817390724F44F5F9C
:100250004093000102C010920001ACE7B0E02C9185
:100260008091000190E00196FC01EE0FFF1F8E0FC0
:100270009F1FFC01E050FF4F8081922F907F8F7075
:10028000892B8C93FF91EF91BF91AF919F918F91AB
:100290004F913F912F910F900BBE0F900FBE0F907B
:1002A0001F901895EF92FF920F931F93CF93DF93B8
:1002B00081E08093D80082E08093E20084E0809324
:1002C000E30083E18093E4008FE78093DF008FEF0A
:1002D0008093DE0080EB8093DB0080E00DEE10E089
:1002E0002EEE30E0C4EFD0E04FEF5FEFBA01A0EFA9
:1002F000B0E00F2EFFEEEF2EF12CF02DF8018083F1
:10030000F9011082488359836A837B831D921D9271
:100310001D921C921397F7011082805F803F71F746
:1003200082E08093D800DF91CF911F910F91FF90D1
:10033000EF900895CF92DF92EF92FF922091ED001F
:10034000309177013E3008F052C0A5E7B1E0129637
:10035000EC9112973BE0E39FF0011124EB58FE4F24
:100360009483838312963C9112973F5F12963C933D
:10037000129712963C913295307F3093ED00E4EF66
:10038000F0E0C080D180E280F38060957095AB0191
:1003900060E070E0440F551F661F771F440F551F24
:1003A000661F771F440F551F661F771F4C255D255D
:1003B0006E257F254083518362837383A0E0B0E084
:1003C000880F991FAA1FBB1F880F991FAA1FBB1F49
:1003D000880F991FAA1FBB1F8093F0009093F10014
:1003E000A093F200B093F30080E98093EF00209394
:1003F000ED00FF90EF90DF90CF9008952091750170
:100400003091760181E0232B09F480E008958F92EA
:100410009F92AF92BF92CF92DF92EF92FF920F9393
:100420001F93CF93DF9320917701222309F45DC0BE
:10043000209175013091760120FD0EC0A0E001E011
:1004400010E0E5E7F1E04AC020813181202331232B
:10045000232B09F443C003C0A0E001E010E00F2EFD
:10046000F5E7EF2EF1E0FF2EF02D6801C094D09457
:100470002BE0A29FD0011124AB58BE4F5D01E3E0F9
:10048000AE0EB11CED012596F701208131812C21A2
:100490003D2131832083F50120813181FC013183AD
:1004A00020832881FA0120832881222379F0912C4E
:1004B000292D30E0FD01E20FF31F8680260F371F44
:1004C000F901808293942881921690F3F70120819C
:1004D000318120233123232BB9F607C0000F111FD0
:1004E000AF5F2281A21708F4AFCFDF91CF911F91A8
:1004F0000F91FF90EF90DF90CF90BF90AF909F90C3
:100500008F9008951F920F920FB60F9211240BB681
:100510000F922F933F934F935F936F937F938F939C
:100520009F93AF93BF93CF93DF93EF93FF93EDEE42
:10053000F0E04081108250911C018091EE0086FF16
:1005400053C080911B01581709F44EC0652F70E00D
:100550002BE0529FF0011124E55EFE4F8481882339
:10056000B1F080E09BE0969F9001979F300D1124A1
:10057000255E3E4FCAEFD0E0D9011496F901E80F8D
:10058000F11D958198838F5F9C918917B8F38BE05B
:10059000869FF001879FF00D1124E55EFE4F82815A
:1005A0009381A0E0B0E0880F991FAA1FBB1F880F9E
:1005B000991FAA1FBB1F880F991FAA1FBB1F8093DB
:1005C000F0009093F100A093F200B093F3008481C7
:1005D00080658093EF00573020F45F5F50931C01DB
:1005E00073C010921C0170C0909177019295907F1A
:1005F000903108F469C080E18093ED008091EE00B5
:1006000085FD0BC0E0E1CDEED0E0AEEEB0E058C02D
:10061000E8838C9185FF54C001C0E0E1A5E7B1E01B
:100620002D913C911197E295EF70E15081E090E0BF
:100630000E2E02C0880F991F0A94E2F7822B932B8B
:1006400011969C938E938091F0009091F100A0916F
:10065000F200B091F300689412F8B695A7959795BB
:1006600087951694D1F76E2F70E02BE0E29FF00192
:100670001124EB58FE4F948383838091EF008F7099
:10068000858385818823B1F080E0CAEFD0E09BE0CC
:10069000969F9001979F300D11242B583E4FD90102
:1006A00015969881F901E80FF11D96838F5F9C9153
:1006B0008917B8F3EFEEF0E080818068808304C092
:1006C000E05F9E1708F0A4CF1092EE004093ED007B
:1006D000FF91EF91DF91CF91BF91AF919F918F915A
:1006E0007F916F915F914F913F912F910F900BBE32
:1006F0000F900FBE0F901F90189580E090E04FEF85
:100700005FEF9C012F5F3F4FF901EE0FFF1FEE5E81
:10071000FD4F51834083880F991FFC01EC5DFD4F15
:1007200051834083C9012830310559F784E192E0B3
:10073000909313028093120284E292E008952FB7FF
:1007400020789FB792279FBFE0911202F091130289
:1007500090E0880F991FE80FF91F718360838FB7AE
:10076000282B2FBF0895809112029091130284517B
:10077000924049F484E292E0909313028093120233
:1007800084E192E0089584E192E0909313028093D3
:10079000120284E292E0089588E084B98FEF8EBD62
:1007A00010923B0210923A021092390210923802D3
:1007B000109235021092340280EC8CBD0895909313
:1007C0003B0280933A0261506093390210923802E2
:1007D000FC0180818EBD0895909335028093340290
:1007E00008951F920F920FB60F9211240BB60F921D
:1007F0002F933F934F935F936F937F938F939F9329
:10080000AF93BF93EF93FF9380913802811107C09C
:10081000E0913602F0913702309709F009959091F6
:10082000380280913902981730F4809138028F5F36
:100830008093380209C010923802E0913402F0919E
:100840003502309709F0099580913A0290913B0268
:10085000009739F020913802FC01E20FF11D8081F0
:100860008EBDFF91EF91BF91AF919F918F917F913D
:100870006F915F914F913F912F910F900BBE0F9011
:100880000FBE0F901F9018956EDF60E198CF08950E
:10089000CF93DF93CDB7DEB72E970FB6F894DEBFB8
:1008A0000FBECDBF79DF29DF60E189DF84E494E00A
:1008B00093DFF8DC6FEF7FEF88E090E03BDD6FEFD8
:1008C0007FEF89E090E036DD1092800085E0809334
:1008D00081001092820010926F008EEF98E090934A
:1008E00089008093880083E0E6DB099A119A789466
:1008F0001AC0AE01435F5F4FBE016B5F7F4FCE01F9
:10090000019685DD89819A818830910519F00997D2
:1009100031F009C06D8170E081E011DF04C06D81AC
:1009200070E082E00CDF6ADD8111E3CFBE016D5F14
:0E0930007F4FCE010E96F9DBF6CFF894FFCF85
:00000001FF
