S00E00006875332D63332E7372656343
S113000049C0000064C0000062C0000060C000007D
S11300105EC000005CC000005AC0000058C0000070
S113002056C0000054C0000052C0000050C0000080
S11300304EC000004CC000004AC0000048C0000090
S113004046C0000044C000006AC2000040C0000076
S1130050D5C300003CC000003AC0000038C0000016
S113006036C00000BCC0000032C0000030C0000038
S11300702EC000002CC000002AC0000028C00000D0
S113008026C0000024C0000022C0000020C00000E0
S11300901EC0000011241FBECFEFD0E1DEBFCDBFD4
S11300A011E0A0E0B1E0EEE0FDE000E00BBF02C033
S11300B007900D92A031B107D9F722E0A0E1B1E099
S11300C001C01D92AC34B207E1F73FD51EC698CFEC
S11300D090E0A0E1B1E080FF14C012962C91129739
S11300E031E0320F12963C93129730E02F5F3F4F6E
S11300F0F901EE0FFF1F2E0F3F1FF901E05FFE4FC6
S1130100908386959F5F983031F780937E0080912D
S1130110100190E00196FC01EE0FFF1F8E0F9F1F50
S1130120FC01E05FFE4F8081806480937C00EAE7FD
S1130130F0E08FE8808385E080937B00808180629B
S1130140808308950F931F93CF93DF938C01EB016A
S113015080911101482F50E09A012F5F3F4FF90120
S1130160EE0FFF1F2E0F3F1FF901E05FFE4F90813E
S113017099237CF5FA0131969F01220F331FE20F78
S1130180F31FE05FFE4FBA01660F771F640F751F00
S11301906C5E7E4F90819F7090839081D8019C9378
S11301A0DB012D913C91398328839081992394F329
S11301B02091120130E021503109421753072CF4E9
S11301C08F5F8093110181E005C01092110181E0DD
S11301D001C080E0DF91CF911F910F9108951F928C
S11301E00F920FB60F9211240BB60F922F933F93D9
S11301F04F938F939F93AF93BF93EF93FF93A0E19C
S1130200B1E04C91E4E8F0E0808191812091880094
S113021030918900821B930B9183808396B381E094
S1130220892786BB242F30E0F9013196CF01880F4E
S1130230991FE80FF91FE05FFE4F8081806880837B
S11302408091780090917900F901EE0FFF1FE20F81
S1130250F31FE05FFE4F9583848312968C9190E0A8
S113026001972817390724F44F5F4093100102C007
S113027010921001ACE7B0E02C918091100190E055
S11302800196FC01EE0FFF1F8E0F9F1FFC01E05F24
S1130290FE4F8081922F907F8F70892B8C93FF91DA
S11302A0EF91BF91AF919F918F914F913F912F917A
S11302B00F900BBE0F900FBE0F901F901895EF92EA
S11302C0FF920F931F93CF93DF9381E08093D80025
S11302D082E08093E20084E08093E30083E18093F2
S11302E0E4008FE78093DF008FEF8093DE0080EBE4
S11302F08093DB0080E00DEE10E02EEE30E0C4EFE2
S1130300D0E04FEF5FEFBA01A0EFB0E00F2EFFEEA9
S1130310EF2EF12CF02DF8018083F901108248832F
S113032059836A837B831D921D921D921C9213979D
S1130330F7011082805F803F71F782E08093D800DC
S1130340DF91CF911F910F91FF90EF900895CF927D
S1130350DF92EF92FF922091ED00309187013E30C1
S113036008F052C0A5E8B1E01296EC9112973BE078
S1130370E39FF0011124EB57FE4F9483838312967D
S11303803C9112973F5F12963C93129712963C91C0
S11303903295307F3093ED00E4EFF0E0C080D180FF
S11303A0E280F38060957095AB0160E070E0440FEB
S11303B0551F661F771F440F551F661F771F440F75
S11303C0551F661F771F4C255D256E257F254083AD
S11303D0518362837383A0E0B0E0880F991FAA1F42
S11303E0BB1F880F991FAA1FBB1F880F991FAA1F25
S11303F0BB1F8093F0009093F100A093F200B093A0
S1130400F30080E98093EF002093ED00FF90EF90DC
S1130410DF90CF900895209185013091860181E08D
S1130420232B09F480E008958F929F92AF92BF929C
S1130430CF92DF92EF92FF920F931F93CF93DF93AC
S113044020918701222309F45DC020918501309118
S1130450860120FD0EC0A0E001E010E0E5E8F1E037
S11304604AC02081318120233123232B09F443C046
S113047003C0A0E001E010E00F2EF5E8EF2EF1E05C
S1130480FF2EF02D6801C094D0942BE0A29FD001E0
S11304901124AB57BE4F5D01E3E0AE0EB11CED017C
S11304A02596F701208131812C213D213183208340
S11304B0F50120813181FC01318320832881FA01F7
S11304C020832881222379F0912C292D30E0FD010D
S11304D0E20FF31F8680260F371FF9018082939461
S11304E02881921690F3F701208131812023312352
S11304F0232BB9F607C0000F111FAF5F2281A2178B
S113050008F4AFCFDF91CF911F910F91FF90EF903F
S1130510DF90CF90BF90AF909F908F9008951F92DF
S11305200F920FB60F9211240BB60F922F933F9395
S11305304F935F936F937F938F939F93AF93BF93E7
S1130540CF93DF93EF93FF93EDEEF0E040811082C1
S113055050912C018091EE0086FF53C080912B01B5
S1130560581709F44EC0652F70E02BE0529FF0013C
S11305701124E55DFE4F84818823B1F080E09BE087
S1130580969F9001979F300D1124255D3E4FCAEF31
S1130590D0E0D9011496F901E80FF11D95819883F3
S11305A08F5F9C918917B8F38BE0869FF001879F3A
S11305B0F00D1124E55DFE4F82819381A0E0B0E04F
S11305C0880F991FAA1FBB1F880F991FAA1FBB1F43
S11305D0880F991FAA1FBB1F8093F0009093F1000E
S11305E0A093F200B093F300848180658093EF00C0
S11305F0573020F45F5F50932C0173C010922C018C
S113060070C0909187019295907F903108F469C0F1
S113061080E18093ED008091EE0085FD0BC0E0E168
S1130620CDEED0E0AEEEB0E058C0E8838C9185FF0B
S113063054C001C0E0E1A5E8B1E02D913C911197CF
S1130640E295EF70E15081E090E00E2E02C0880F39
S1130650991F0A94E2F7822B932B11969C938E9305
S11306608091F0009091F100A091F200B091F3001C
S1130670689412F8B695A795979587951694D1F72F
S11306806E2F70E02BE0E29FF0011124EB57FE4F38
S1130690948383838091EF008F7085838581882381
S11306A0B1F080E0CAEFD0E09BE0969F9001979F65
S11306B0300D11242B573E4FD90115969881F9011D
S11306C0E80FF11D96838F5F9C918917B8F3EFEEC5
S11306D0F0E080818068808304C0E05F9E1708F0AA
S11306E0A4CF1092EE004093ED00FF91EF91DF91C3
S11306F0CF91BF91AF919F918F917F916F915F91B6
S11307004F913F912F910F900BBE0F900FBE0F9002
S11307101F90189580E090E04FEF5FEF9C012F5FF2
S11307203F4FF901EE0FFF1FEE5DFD4F51834083F4
S1130730880F991FFC01EC5CFD4F51834083C90174
S11307402830310559F784E292E090932302809394
S1130750220284E392E008952FB720789FB792276E
S11307609FBFE0912202F091230290E0880F991F2D
S1130770E80FF91F718360838FB7282B2FBF08956B
S113078080912202909123028452924049F484E39E
S113079092E0909323028093220284E292E00895EF
S11307A084E292E0909323028093220284E392E015
S11307B0089588E084B98FEF8EBD10924B02109299
S11307C04A02109249021092480210924502109275
S11307D0440280EC8CBD089590934B0280934A02AE
S11307E061506093490210924802FC0180818EBDE1
S11307F00895909345028093440208951F920F92A6
S11308000FB60F9211240BB60F922F933F934F9371
S11308105F936F937F938F939F93AF93BF93EF9364
S1130820FF9380914802811107C0E0914602F09144
S11308304702309709F00995909148028091490246
S1130840981730F4809148028F5F8093480209C062
S113085010924802E0914402F0914502309709F069
S1130860099580914A0290914B02009739F02091AA
S11308704802FC01E20FF11D80818EBDFF91EF91D2
S1130880BF91AF919F918F917F916F915F914F91A4
S11308903F912F910F900BBE0F900FBE0F901F90A2
S11308A018956EDF68E098CF0895FC0180910F01E0
S11308B097B1982B97B938B190910F0120910F01FE
S11308C090959323922B98B96081718183E044CFF2
S11308D00895FC0180910F0190910E019827909347
S11308E00E0138B190910F0120910E019095932340
S11308F0922B98B96081718183E02ECF0895FC0119
S113090080910D0197B1982B97B938B190910D0151
S113091020910D0190959323922B98B96081718158
S113092084E01ACF0895FC0180910D0190910C018F
S1130930982790930C0138B190910D0120910C01EE
S113094090959323922B98B96081718184E004CFB0
S11309500895FC0180910B0197B1982B97B938B198
S113096090910B0120910B0190959323922B98B9B0
S11309706081718181E0F0CE0895FC0180910B01CA
S113098090910A01982790930A0138B190910B0134
S113099020910A0190959323922B98B960817181DB
S11309A081E0DACE0895FC018091090197B1982B7A
S11309B097B938B190910901209109019095932339
S11309C0922B98B96081718181E0C6CE0895FC01B3
S11309D0809109019091080198279093080138B1FA
S11309E0909109012091080190959323922B98B935
S11309F06081718181E0B0CE0895FC01809107018E
S1130A0097B1982B97B938B19091070120910701BC
S1130A1090959323922B98B96081718181E09CCE4B
S1130A200895FC0180910701909106019827909305
S1130A30060138B190910701209106019095932306
S1130A40922B98B96081718181E086CE0895FC0172
S1130A508091050197B1982B97B938B19091050110
S1130A602091050190959323922B98B9608171810F
S1130A7081E072CE0895FC018091050190910401FA
S1130A8098279093040138B19091050120910401B5
S1130A9090959323922B98B96081718181E05CCE0B
S1130AA00895FC018091030197B1982B97B938B14F
S1130AB0909103012091030190959323922B98B96F
S1130AC06081718181E048CE0895FC018091030129
S1130AD09091020198279093020138B190910301FB
S1130AE02091020190959323922B98B96081718192
S1130AF081E032CE0895FC018091010197B1982BD9
S1130B0097B938B1909101012091010190959323F7
S1130B10922B98B96081718181E01ECE0895FC0109
S1130B20809101019091000198279093000138B1C0
S1130B30909101012091000190959323922B98B9F3
S1130B406081718181E008CE0895CF93DF93CDB7A2
S1130B50DEB760970FB6F894DEBF0FBECDBF8FEF40
S1130B609FE79A83898325DED5DD68E035DE81E55C
S1130B7094E03FDEA4DB6FEF7FEF88E090E0E7DBFB
S1130B806FEF7FEF80E190E0E2DB6FEF7FEF80E2D9
S1130B9090E0DDDB6FEF7FEF80E490E0D8DB6FEF78
S1130BA07FEF80E890E0D3DB6FEF7FEF80E091E0B0
S1130BB0CEDB6FEF7FEF80E092E0C9DB6FEF7FEF7A
S1130BC080E094E0C4DB62E0CE0101966EDE62E078
S1130BD0CE01019694DE62E0CE010196BADE62E0B7
S1130BE0CE010196E0DE62E0CE01019606DF62E00E
S1130BF0CE0101962CDF62E0CE01019652DF62E065
S1130C00CE01019678DF1092800085E08093810008
S1130C101092820010926F008EEF98E090938900FA
S1130C208093880083E054DA789451C0AE01415F28
S1130C305F4FBE01695F7F4FCE010396F5DB8B8169
S1130C409C818034910559F150F480319105E9F08B
S1130C5080329105F9F0089709F039C011C0811567
S1130C6021E0920731F120F480389105E9F02FC09A
S1130C70811522E0920711F18115944021F127C0DA
S1130C806F85CE01039625DE22C06F85CE010396C3
S1130C904ADE1DC06F85CE0103966FDE18C06F85D6
S1130CA0CE01039694DE13C06F85CE010396B9DEA0
S1130CB00EC06F85CE010396DEDE09C06F85CE01BE
S1130CC0039603DF04C06F85CE01039628DFA3DB00
S1130CD08111ACCFBE016B5F7F4FCE01409632DAFB
S1130CE08823A9F38889882319F0813051F0EFCF44
S1130CF088B19D81990F990F907F8F70892B88B946
S1110D00E6CF88B18F7088B9E2CFF894FFCFA8
S1130D0E80804040202010100808040402020101D3
S9030000FC
