:1000000049C0000064C0000062C0000060C0000081
:100010005EC000005CC000005AC0000058C0000074
:1000200056C0000054C0000052C0000050C0000084
:100030004EC000004CC000004AC0000048C0000094
:1000400046C0000044C0000073C1000040C0000072
:10005000D6C200003CC000003AC0000038C000001A
:1000600036C0000034C0000032C0000030C00000C4
:100070002EC000002CC000002AC0000028C00000D4
:1000800026C0000024C0000022C0000020C00000E4
:100090001EC0000011241FBECFEFD0E1DEBFCDBFD8
:1000A00011E0A0E0B1E0E4E7FAE000E00BBF02C03D
:1000B00007900D92A031B107D9F722E0A0E1B1E09D
:1000C00001C01D92A133B207E1F740D4D1C498CF4B
:1000D000EF92FF920F931F93CF93DF9381E0809372
:1000E000D80082E08093E20084E08093E30083E123
:1000F0008093E4008FE78093DF008FEF8093DE0032
:1001000080EB8093DB0080E00DEE10E02EEE30E01F
:10011000C4EFD0E04FEF5FEFBA01A0EFB0E00F2ED9
:10012000FFEEEF2EF12CF02DF8018083F901108203
:10013000488359836A837B831D921D921D921C9272
:100140001397F7011082805F803F71F782E0809300
:10015000D800DF91CF911F910F91FF90EF900895FC
:10016000CF92DF92EF92FF922091ED0030916C01DF
:100170003E3008F052C0AAE6B1E01296EC91129718
:100180003BE0E39FF0011124E659FE4F9483838303
:1001900012963C9112973F5F12963C9312971296DB
:1001A0003C913295307F3093ED00E4EFF0E0C08079
:1001B000D180E280F38060957095AB0160E070E0E3
:1001C000440F551F661F771F440F551F661F771F6B
:1001D000440F551F661F771F4C255D256E257F2513
:1001E0004083518362837383A0E0B0E0880F991F3E
:1001F000AA1FBB1F880F991FAA1FBB1F880F991F1B
:10020000AA1FBB1F8093F0009093F100A093F2000F
:10021000B093F30080E98093EF002093ED00FF900E
:10022000EF90DF90CF90089520916A0130916B019B
:1002300081E0232B09F480E008958F929F92AF9282
:10024000BF92CF92DF92EF92FF920F931F93CF93C3
:10025000DF9320916C01222309F45DC020916A0193
:1002600030916B0120FD0EC0A0E001E010E0EAE655
:10027000F1E04AC02081318120233123232B09F46E
:1002800043C003C0A0E001E010E00F2EFAE6EF2E1D
:10029000F1E0FF2EF02D6801C094D0942BE0A29FD6
:1002A000D0011124A659BE4F5D01E3E0AE0EB11C92
:1002B000ED012596F701208131812C213D213183EB
:1002C0002083F50120813181FC0131832083288145
:1002D000FA0120832881222379F0912C292D30E006
:1002E000FD01E20FF31F8680260F371FF901808280
:1002F00093942881921690F3F70120813181202375
:100300003123232BB9F607C0000F111FAF5F2281E5
:10031000A21708F4AFCFDF91CF911F910F91FF90FB
:10032000EF90DF90CF90BF90AF909F908F90089507
:100330001F920F920FB60F9211240BB60F922F93AC
:100340003F934F935F936F937F938F939F93AF935D
:10035000BF93CF93DF93EF93FF93EDEEF0E04081F7
:100360001082509111018091EE0086FF53C0809160
:100370001001581709F44EC0652F70E02BE0529F12
:10038000F0011124E05FFE4F84818823B1F080E00A
:100390009BE0969F9001979F300D1124205F3E4F68
:1003A000CAEFD0E0D9011496F901E80FF11D95814B
:1003B00098838F5F9C918917B8F38BE0869FF0013B
:1003C000879FF00D1124E05FFE4F82819381A0E0B2
:1003D000B0E0880F991FAA1FBB1F880F991FAA1F83
:1003E000BB1F880F991FAA1FBB1F8093F00090931B
:1003F000F100A093F200B093F300848180658093B4
:10040000EF00573020F45F5F5093110173C01092DA
:10041000110170C090916C019295907F903108F419
:1004200069C080E18093ED008091EE0085FD0BC0F6
:10043000E0E1CDEED0E0AEEEB0E058C0E8838C91C4
:1004400085FF54C001C0E0E1AAE6B1E02D913C91E6
:100450001197E295EF70E15081E090E00E2E02C01E
:10046000880F991F0A94E2F7822B932B11969C9385
:100470008E938091F0009091F100A091F200B091E4
:10048000F300689412F8B695A795979587951694FA
:10049000D1F76E2F70E02BE0E29FF0011124E659B6
:1004A000FE4F948383838091EF008F7085838581D5
:1004B0008823B1F080E0CAEFD0E09BE0969F9001E6
:1004C000979F300D112426593E4FD90115969881DA
:1004D000F901E80FF11D96838F5F9C918917B8F39E
:1004E000EFEEF0E080818068808304C0E05F9E17BB
:1004F00008F0A4CF1092EE004093ED00FF91EF9131
:10050000DF91CF91BF91AF919F918F917F916F912B
:100510005F914F913F912F910F900BBE0F900FBEA7
:100520000F901F90189580E090E04FEF5FEF9C01D7
:100530002F5F3F4FF901EE0FFF1FE95FFD4F518322
:100540004083880F991FFC01E75EFD4F5183408374
:10055000C9012830310559F789E092E090930802EB
:100560008093070289E192E00895E0910702F091FB
:10057000080290E0880F991FE80FF91F71836083CC
:10058000089580910702909108028950924049F4A1
:1005900089E192E0909308028093070289E092E05B
:1005A000089589E092E0909308028093070289E120
:1005B00092E0089588E084B98FEF8EBD10923002EA
:1005C00010922F0210922E0210922D0210922A02E7
:1005D0001092290280EC8CBD089590933002809394
:1005E0002F02615060932E0210922D02FC01808137
:1005F0008EBD089590932A028093290208951F9238
:100600000F920FB60F9211240BB60F922F933F93B8
:100610004F935F936F937F938F939F93AF93BF930A
:10062000EF93FF9380912D02811107C0E0912B027F
:10063000F0912C02309709F0099590912D0280914C
:100640002E02981730F480912D028F5F80932D0237
:1006500009C010922D02E0912902F0912A023097F0
:1006600009F0099580912F0290913002009739F09E
:1006700020912D02FC01E20FF11D80818EBDFF91C2
:10068000EF91BF91AF919F918F917F916F915F910A
:100690004F913F912F910F900BBE0F900FBE0F9077
:1006A0001F9018956EDF68E098CF0895FC01809147
:1006B0000F0197B1982B97B938B190910F01209104
:1006C0000F0190959323922B98B96081718183E0FB
:1006D0004CCF0895FC0180910F0190910E01982755
:1006E00090930E0138B190910F0120910E019095D9
:1006F0009323922B98B96081718183E036CF08955E
:10070000FC0180910D0197B1982B97B938B1909168
:100710000D0120910D0190959323922B98B9608142
:10072000718184E022CF0895FC0180910D019091A8
:100730000C01982790930C0138B190910D012091F4
:100740000C0190959323922B98B96081718184E07C
:100750000CCF0895FC0180910B0197B1982B97B9AC
:1007600038B190910B0120910B0190959323922B1E
:1007700098B96081718181E0F8CE0895FC01809183
:100780000B0190910A01982790930A0138B190913A
:100790000B0120910A0190959323922B98B96081C7
:1007A000718181E0E2CE0895FC018091090197B149
:1007B000982B97B938B19091090120910901909532
:1007C0009323922B98B96081718181E0CECE0895F8
:1007D000FC018091090190910801982790930801EC
:1007E00038B1909109012091080190959323922BA3
:1007F00098B96081718181E0B8CE0895FC01809143
:10080000070197B1982B97B938B1909107012091C2
:10081000070190959323922B98B96081718181E0B3
:10082000A4CE0895FC0180910701909106019827BC
:100830009093060138B1909107012091060190959F
:100840009323922B98B96081718181E08ECE0895B7
:10085000FC018091050197B1982B97B938B190911F
:1008600005012091050190959323922B98B9608101
:10087000718181E07ACE0895FC018091050190910B
:10088000040198279093040138B1909105012091BB
:10089000040190959323922B98B96081718181E036
:1008A00064CE0895FC018091030197B1982B97B90C
:1008B00038B1909103012091030190959323922BDD
:1008C00098B96081718181E050CE0895FC018091DA
:1008D00003019091020198279093020138B1909101
:1008E00003012091020190959323922B98B9608186
:1008F000718181E03ACE0895FC018091010197B1A8
:10090000982B97B938B190910101209101019095F0
:100910009323922B98B96081718181E026CE08954E
:10092000FC018091010190910001982790930001B2
:1009300038B1909101012091000190959323922B61
:1009400098B96081718181E010CE0895CF93DF93D3
:10095000CDB7DEB72D970FB6F894DEBF0FBECDBF73
:100960008FEF9FE79A83898325DEDDDD68E035DE42
:1009700082E593E03FDEACDB60E070E080E090E099
:10098000EFDB62E0CE01019691DE62E0CE010196DE
:10099000B7DE62E0CE010196DDDE62E0CE010196B7
:1009A00003DF62E0CE01019629DF62E0CE0101960D
:1009B0004FDF62E0CE01019675DF62E0CE01019665
:1009C0009BDF789451C0AE01435F5F4FBE016B5F08
:1009D0007F4FCE01039631DC8B819C818034910561
:1009E00059F150F480319105E9F080329105F9F028
:1009F000089709F039C011C0811521E0920731F143
:100A000020F480389105E9F02FC0811522E092078B
:100A100011F18115944021F127C06D85CE01039617
:100A200059DE22C06D85CE0103967EDE1DC06D8528
:100A3000CE010396A3DE18C06D85CE010396C8DEF5
:100A400013C06D85CE010396EDDE0EC06D85CE011F
:100A5000039612DF09C06D85CE01039637DF04C00F
:100A60006D85CE0103965CDFDFDB8111ACCFFCCF5F
:040A7000F894FFCF28
:100A74008080404020201010080804040202010174
:00000001FF
