S00E00006875332D63332E7372656343
S113000049C0000064C0000062C0000060C000007D
S11300105EC000005CC000005AC0000058C0000070
S113002056C0000054C0000052C0000050C0000080
S11300304EC000004CC000004AC0000048C0000090
S113004046C0000044C000003EC2000040C00000A2
S113005099C300003CC000003AC0000038C0000052
S113006036C00000B1C0000032C0000030C0000043
S11300702EC000002CC000002AC0000028C00000D0
S113008026C0000024C0000022C0000020C00000E0
S11300901EC0000011241FBECFEFD0E1DEBFCDBFD4
S11300A011E0A0E0B1E0E8EEF8E000E00BBF02C030
S11300B007900D92A030B107D9F722E0A0E0B1E09B
S11300C001C01D92AC33B207E1F7B2D30BC498CF91
S11300D090E080FF12C02091020131E0320F309392
S11300E0020130E02F5F3F4FF901EE0FFF1F2E0F8B
S11300F03F1FF901E050FF4F908386959F5F983032
S113010041F780937E008091000190E00196FC010C
S1130110EE0FFF1F8E0F9F1FFC01E050FF4F8081E9
S1130120806480937C008FE880937A0010927B0037
S113013008950F931F93CF93DF938C01EB0180916C
S11301400101482F50E09A012F5F3F4FF901EE0F54
S1130150FF1FE20FF31FE050FF4F908197FD06C091
S113016080E0DF91CF911F910F910895BA01660F3E
S1130170771F640F751F6C5F7E4F90819F70908313
S11301809081D8019C93DB012D913C913983288384
S1130190908197FDF2CF2091020130E02150310986
S11301A04217530744F01092010181E0DF91CF918F
S11301B01F910F9108958F5F8093010181E0DF917A
S11301C0CF911F910F9108951F920F920FB60F9226
S11301D011240BB60F922F933F934F938F939F93BA
S11301E0EF93FF9340910001242F30E0F901319601
S11301F0CF01880F991FE80FF91FE050FF4F80814E
S1130200806880838091780090917900F901EE0FE5
S1130210FF1FE20FF31FE050FF4F9583848380910B
S1130220020190E00197281739072CF11092000180
S113023020917C008091000190E00196FC01EE0F7A
S1130240FF1F8E0F9F1FFC01E050FF4F8081922FF4
S1130250907F8F70892B80937C00FF91EF919F9109
S11302608F914F913F912F910F900BBE0F900FBE26
S11302700F901F9018954F5F40930001D9CF81E0F4
S11302808093D80082E08093E20084E08093E300CE
S113029083E18093E4008FE78093DF008FEF809306
S11302A0DE0080EB8093DB0080E04FEF5FEFBA016C
S11302B08093ED001092EE004093F4005093F5000B
S11302C06093F6007093F7001092F0001092F10022
S11302D01092F2001092F3001092EF00805F803FC2
S11302E039F782E08093D8000895CF92DF92EF929D
S11302F0FF922091ED00309177013E3008F053C019
S1130300E09177013BE0E39FF0011124EB58FE4FAD
S113031094838383309177013F5F309377013091E9
S113032077013295307F3093ED00C090F400D09087
S1130330F500E090F600F090F70060957095AB0141
S113034060E070E0440F551F661F771F440F551F70
S1130350661F771F440F551F661F771F4C255D25A9
S11303606E257F254093F4005093F5006093F600CA
S11303707093F700A0E0B0E0880F991FAA1FBB1F7D
S1130380880F991FAA1FBB1F880F991FAA1FBB1F85
S11303908093F0009093F100A093F200B093F300E7
S11303A080E98093EF002093ED00FF90EF90DF90C1
S11303B0CF900895209175013091760181E0232B2F
S11303C009F480E008958F929F92BF92CF92DF92BA
S11303D0EF92FF920F931F93CF93DF9320917701B6
S11303E02223D1F0209175013091760120FD61C066
S11303F0E0E088248394912C08C020917501309109
S1130400760128213921232B99F4880C991CEF5F5C
S113041020917701E21788F3DF91CF911F910F911B
S1130420FF90EF90DF90CF90BF909F908F900895B2
S11304307401E094F0942E2F30E0EBE0E29FD001C1
S1130440E39FB00D1124AB58BE4F8D010D5F1F4FBC
S1130450FD01359620917501309176012E213F21C1
S11304603093760120937501E80128813981EC01EC
S1130470398328832081EA0128832081222381F083
S1130480B12C2B2D30E06D01C20ED31EE601DE80AF
S1130490260F371FE901D882B3942081B21688F35E
S11304A0209175013091760128213921232B91F671
S11304B0B3CF20E030E0EEEFEE2EFF24FA94882450
S11304C08394912CBACF1F920F920FB60F921124DE
S11304D00BB60F922F933F934F935F936F937F933A
S11304E08F939F93AF93BF93EF93FF934091ED004E
S11304F01092ED0050911C018091EE0086FF60C0C7
S113050080911B01581709F45BC0652F70E08BE0E4
S1130510589F90011124F901E55EFE4F84818823E0
S113052071F080E09F01DF011496F901E80FF11DDD
S113053095819093FA008F5F9C918917B0F38BE0BB
S1130540869FF001879FF00D1124E55EFE4F8281A6
S11305509381A0E0B0E0880F991FAA1FBB1F880FEA
S1130560991FAA1FBB1F880F991FAA1FBB1F809327
S1130570F0009093F100A093F200B093F300848113
S113058080658093EF00573008F080C05F5F509320
S11305901C011092EE004093ED00FF91EF91BF918A
S11305A0AF919F918F917F916F915F914F913F9107
S11305B02F910F900BBE0F900FBE0F901F901895A8
S11305C0209177012295207F203118F380E18093D8
S11305D0ED008091EE0085FD5CC080E106C0809353
S11305E0ED009091EE0095FD04C0805F2817B8F7E8
S11305F0D0CF82958F708150682F70E021E030E079
S1130600F90102C0EE0FFF1F8A95E2F7CF01209196
S1130610750130917601822B932B90937601809310
S113062075018091F0009091F100A091F200B091D9
S1130630F30023E0B695A795979587952A95D1F76A
S11306405BE0569F9001579F300D1124F901EB5840
S1130650FE4F948383838091EF008F70858385811F
S1130660882371F080E09F01DF0115969091FA00D4
S1130670F901E80FF11D96838F5F9C918917B0F300
S11306808091EF0080688093EF0083CF10921C016B
S113069080CF81E090E060E070E0B9CF80E090E04E
S11306A04FEF5FEF9C012F5F3F4FF901EE0FFF1FEC
S11306B0EE5EFD4F51834083880F991FFC01EC5D72
S11306C0FD4F51834083C9012830310559F784E136
S11306D092E0909313028093120284E292E00895D0
S11306E02FB720789FB792279FBFE0911202F09115
S11306F0130290E0880F991FE80FF91F718360833C
S11307008FB7282B2FBF0895809112029091130266
S11307108451924049F084E192E0909313028093D3
S1130720120284E292E0089584E292E0909313022C
S11307308093120284E192E0089588E084B98FEFF7
S11307408EBD10923B0210923A021092390210921E
S11307503802109235021092340280EC8CBD089558
S113076090933B0280933A02615060933902109255
S11307703802FC0180818EBD0895909335028093E8
S1130780340208951F920F920FB60F9211240BB6E4
S11307900F922F933F934F935F936F937F938F9316
S11307A09F93AF93BF93EF93FF938091380281118E
S11307B007C0E0913602F0913702309709F00995AD
S11307C09091380280913902981728F58091380267
S11307D08F5F8093380280913A0290913B02009798
S11307E039F020913802FC01E20FF11D80818EBDA9
S11307F0FF91EF91BF91AF919F918F917F916F91F5
S11308005F914F913F912F910F900BBE0F900FBEB0
S11308100F901F90189510923802E0913402F091D5
S113082035023097C1F20995D6CF6EDF68E098CFD4
S1130830CF93DF93CDB7DEB72E970FB6F894DEBF14
S11308400FBECDBF7ADF2ADF68E08ADF85E194E05E
S113085094DF15DD6FEF7FEF88E090E046DD6FEF0A
S11308607FEF89E090E041DD1092800085E0809385
S113087081001092820010926F008EEF98E09093A6
S113088089008093880083E023DC099A119A789484
S113089091DD81110DC0BE01675F7F4FCE010D96C2
S11308A048DC60E070E083E01BDF84DD882399F39B
S11308B0AE01425F5F4FBE016F5F7F4FCE010B966B
S11308C082DD8B859C858830910539F0099701F785
S11308D0698170E082E004DFDBCF698170E081E050
S10B08E0FFDED6CFF894FFCF30
S9030000FC
