:1000000049C000004FC000004DC000004BC00000C0
:1000100049C0000047C0000045C0000043C00000C8
:1000200041C000003FC000003DC000003BC00000D8
:1000300039C0000037C0000035C0000033C00000E8
:1000400031C000002FC000002DC000002BC00000F8
:1000500029C0000027C0000025C0000023C0000008
:1000600021C000001FC000001DC000001BC0000018
:1000700019C0000017C0000015C0000013C0000028
:1000800011C000000FC000000DC000000BC0000038
:1000900009C0000011241FBECFEFD0E1DEBFCDBFED
:1000A00007D13CC1ADCFEF92FF920F931F93CF9337
:1000B000DF9321E02093D80032E03093E20034E077
:1000C0003093E30033E13093E4002093DE0020E836
:1000D0002093DB001092ED001092EE001092EF00E2
:1000E0004FEF5FEFBA014093F4005093F500609337
:1000F000F6007093F700282F2295220F207E969508
:100100008795969587959695879590E0A0E0B0E0C5
:10011000B82FAA2799278827A22B8093F0009093C5
:10012000F100A093F200B093F30081E00DEE10E037
:100130002EEE30E0CFEED0E0A4EFB0E00F2EF0EFE7
:10014000EF2EF12CF02D982F9295907FF80190834F
:10015000F901108218824D935D936D937C931397F0
:10016000F70110821182128213828F5F8E3059F74D
:1001700082E08093D800DF91CF911F910F91FF9083
:10018000EF900895CF93DF93EC0180E18093ED0031
:100190008091F0009091F100A091F200B091F300F5
:1001A000892B8A2B8B2B89F092E0ADEEB0E0E0EF4B
:1001B000F0E0292F2295207F2C934081518162818C
:1001C0007381452B462B472BF9F42C2F2295220FB8
:1001D000207ECE01969587959695879596958795DD
:1001E00090E0A0E0B0E0B82FAA2799278827A22B9B
:1001F0008093F0009093F100A093F200B093F3008D
:1002000080E88093EF0003C09F5F9E3091F6DF91FE
:10021000CF9108950F931F93CF93DF938C01EA0141
:1002200080E18093ED008091EE0085FD0CC092E0AE
:10023000ADEEB0E0EEEEF0E0292F2295207F2C937A
:10024000208125FF2DC08091F2002091F30082953E
:100250008695877030E0220F331F220F331F220F45
:10026000331F282BF801318320838091EF008F709A
:100270008883882361F080E0AAEFB0E09C91FB01C5
:10028000E80FF11D90838F5F98818917B8F3EEEE28
:10029000F0E080818F7D808380E88093EF0003C051
:1002A0009F5F9E3049F6DF91CF911F910F91089586
:1002B000CF93DF93CDB7DEB72B970FB6F894DEBFA1
:1002C0000FBECDBF81E090E0EEDE80E090E05ADF2F
:1002D000789487B1806387B988B1806388B90F2E1D
:1002E000FDEEEF2EF12CF02D6894DD24D4F80EEE07
:1002F00010E0F701D082F801808185FFFCCFAE01CC
:10030000455F5F4FBE016D5F7F4FCE01019682DF7B
:1003100098B18B818073892B88B9EBCFF894FFCF8C
:00000001FF
