:1000000049C000004FC000004DC000004BC00000C0
:1000100049C0000047C0000045C0000043C00000C8
:1000200041C000003FC000003DC000003BC00000D8
:1000300039C0000037C0000035C0000033C00000E8
:1000400031C000002FC000002DC000002BC00000F8
:1000500029C0000027C0000025C0000023C0000008
:1000600021C000001FC000001DC000001BC0000018
:1000700019C0000017C0000015C0000013C0000028
:1000800011C000000FC000000DC000000BC0000038
:1000900009C0000011241FBECFEFD0E1DEBFCDBFED
:1000A000A6D0BBC0ADCFAF92BF92CF92DF92EF92FE
:1000B000FF920F931F93CF93DF9382E08093E20030
:1000C00094E09093E30093E19093E4008093D80050
:1000D0001092ED001092EE001092EF0080E090E0A0
:1000E000A0E0B0EF8093F0009093F100A093F200B5
:1000F000B093F30081E090E0EDEEF0E00EEE10E062
:100100006FEE70E050E8C0EFD0E00F2EF4EFAF2EAE
:10011000B12CF02DCC24CA94DC2C760140819C01BA
:1001200022953295307F3227207F3227342F3F703F
:10013000232B2083D8011C92DB015C931882198247
:100140001A821B82D501CD92DD92ED92FC9213971B
:1001500001968E30910511F7DF91CF911F910F918C
:10016000FF90EF90DF90CF90BF90AF900895EDEEAD
:10017000F0E090819F70906190839091F3009923BB
:1001800099F042E050E0A3EFB0E02081922F9F7001
:100190009A0122953295307F3227207F3227292BF2
:1001A00020839C91911103C08093F30008954F5FC9
:1001B0005F4F4E30510549F708951092ED006623C8
:1001C00079F0FC012FEF260F30E02F5F3F4F280F13
:1001D000391FAAEFB0E091919C93E217F307D9F78A
:1001E0006F706064EFEEF0E0608310820895CF934B
:1001F000DF9300D000D0CDB7DEB755DF81E0B7DFA9
:1002000081E0898382E08A8383E08B8384E08C832E
:0E02100064E0CE010196D1DFFFCFF894FFCF5E
:00000001FF
