S013000061746D656C73747564696F2E7372656366
S113000049C000004FC000004DC000004BC00000BC
S113001049C0000047C0000045C0000043C00000C4
S113002041C000003FC000003DC000003BC00000D4
S113003039C0000037C0000035C0000033C00000E4
S113004031C000002FC000002DC000002BC00000F4
S113005029C0000027C0000025C0000023C0000004
S113006021C000001FC000001DC000001BC0000014
S113007019C0000017C0000015C0000013C0000024
S113008011C000000FC000000DC000000BC0000034
S113009009C0000011241FBECFEFD0E1DEBFCDBFE9
S11300A065D097C0ADCFEF92FF920F931F93CF937C
S11300B0DF9381E08093D80092E09093E20094E093
S11300C09093E30093E19093E4008093DE0080E852
S11300D08093DB0080E00DEE10E02EEE30E0CFEEFA
S11300E0D0E0A4EFB0E04FEF5FEFBA010F2EF0EFD6
S11300F0EF2EF12CF02D982F9295907FF80190839C
S1130100F901108218824D935D936D937C9313973C
S1130110F70110821182128213828F5F8E3059F799
S113012082E08093D800DF91CF911F910F91FF90CF
S1130130EF9008951092ED00662379F0FC012FEF03
S1130140260F30E02F5F3F4F280F391FAAEFB0E092
S113015091919C93E217F307D9F7EFEEF0E08081D9
S1130160807180646F70682B60830895CF93DF93F0
S1130170CDB7DEB728970FB6F894DEBF0FBECDBF5C
S113018092DF7894FE01319688E0DF011D928A9512
S1130190E9F78FEF87B900E011E0F12C198361E0F2
S11301A0CE010196C7DF80E492E4AFE0B0E00197AE
S11301B0A109B109E1F7103829F0113031F0002319
S11301C021F001C001E0169502C0110F0F2D18B9DE
S10901D0E5CFF894FFCF17
S9030000FC
