:1000000049C000004FC000004DC000004BC00000C0
:1000100049C0000047C0000045C0000043C00000C8
:1000200041C000003FC000003DC000003BC00000D8
:1000300039C0000037C0000035C0000033C00000E8
:1000400031C000002FC000002DC000002BC00000F8
:1000500029C0000027C0000025C0000023C0000008
:1000600021C000001FC000001DC000001BC0000018
:1000700019C0000017C0000015C0000013C0000028
:1000800011C000000FC000000DC000000BC0000038
:1000900009C0000011241FBECFEFD0E1DEBFCDBFED
:1000A0008DD0C1C0ADCFEF92FF920F931F93CF932E
:1000B000DF9321E02093D80032E03093E20034E077
:1000C0003093E30033E13093E4002093DE0020E836
:1000D0002093DB001092ED001092EE001092EF00E2
:1000E0004FEF5FEFBA014093F4005093F500609337
:1000F000F6007093F700282F2295220F207E969508
:100100008795969587959695879590E0A0E0B0E0C5
:10011000B82FAA2799278827A22B8093F0009093C5
:10012000F100A093F200B093F30081E00DEE10E037
:100130002EEE30E0CFEED0E0A4EFB0E00F2EF0EFE7
:10014000EF2EF12CF02D982F9295907FF80190834F
:10015000F901108218824D935D936D937C931397F0
:10016000F70110821182128213828F5F8E3059F74D
:1001700082E08093D800DF91CF911F910F91FF9083
:10018000EF9008951092ED00662379F0FC012FEFB7
:10019000260F30E02F5F3F4F280F391FAAEFB0E046
:1001A00091919C93E217F307D9F7EFEEF0E080818D
:1001B000807180646F70682B60830895CF93DF93A4
:1001C000CDB7DEB728970FB6F894DEBF0FBECDBF10
:1001D00080E090E068DF7894FE01319688E0DF01EE
:1001E0001D928A95E9F78FEF87B900E011E0F12CB5
:1001F000198361E0CE010196C5DF80E492E4AFE0AF
:10020000B0E00197A109B109E1F7103829F01130E8
:1002100031F0002321F001C001E0169502C0110F5A
:0A0220000F2D18B9E5CFF894FFCFB9
:00000001FF
