S013000061746D656C73747564696F2E7372656366
S113000049C000004FC000004DC000004BC00000BC
S113001049C0000047C0000045C0000043C00000C4
S113002041C000003FC000003DC000003BC00000D4
S113003039C0000037C0000035C0000033C00000E4
S113004031C000002FC000002DC000002BC00000F4
S113005029C0000027C0000025C0000023C0000004
S113006021C000001FC000001DC000001BC0000014
S113007019C0000017C0000015C0000013C0000024
S113008011C000000FC000000DC000000BC0000034
S113009009C0000011241FBECFEFD0E1DEBFCDBFE9
S11300A091D0BDC0ADCFEF92FF920F931F93CF932A
S11300B0DF9381E08093D80092E09093E20094E093
S11300C09093E30093E19093E4008093DE0080E852
S11300D08093DB0080E00DEE10E02EEE30E0CFEEFA
S11300E0D0E0A4EFB0E04FEF5FEFBA010F2EF0EFD6
S11300F0EF2EF12CF02D982F9295907FF80190839C
S1130100F901108218824D935D936D937C9313973C
S1130110F70110821182128213828F5F8E3059F799
S113012082E08093D800DF91CF911F910F91FF90CF
S1130130EF900895CF93DF93AC0191E0ADEEB0E082
S1130140E2EFF0E0C3EFD0E0292F2295207F2C933B
S11301502081211115C02881211112C0842F82957C
S1130160880F807E8093F200569547955695479563
S1130170569547954093F30080E88093EF0003C0C1
S11301809F5F9E3009F7DF91CF9108951092ED00A3
S1130190662379F0FC012FEF260F30E02F5F3F4FED
S11301A0280F391FAAEFB0E091919C93E217F3074F
S11301B0D9F7EFEEF0E08081807180646F70682B76
S11301C060830895CF93DF9300D0CDB7DEB76BDFA4
S11301D080E090E0AFDF789480E589838A8362E0F1
S11301E0CE010196D3DF8FEF87B930E021E051E0F3
S11301F040E080E492E4AFE0B0E00197A109B109E6
S1130200E1F7203829F0213031F0332321F001C007
S1130210352F269502C0220F342F28B9EACFF8943F
S1050220FFCF0A
S9030000FC
