:1000000049C0000064C0000062C0000060C0000081
:100010005EC000005CC000005AC0000058C0000074
:1000200056C0000054C0000052C0000050C0000084
:100030004EC000004CC000004AC0000048C0000094
:1000400046C0000044C0000072C1000040C0000073
:100050009DC300003CC000003AC0000038C0000052
:1000600036C0000034C0000032C0000030C00000C4
:100070002EC000002CC000002AC0000028C00000D4
:1000800026C0000024C0000022C0000020C00000E4
:100090001EC0000011241FBECFEFD0E1DEBFCDBFD8
:1000A00011E0A0E0B1E0E4E3FAE000E00BBF02C041
:1000B00007900D92A630B107D9F722E0A6E0B1E093
:1000C00001C01D92A838B207E1F735D4B1C498CF6A
:1000D000EF92FF920F931F93CF93DF9321E0209332
:1000E000D80022E02093E20024E02093E30023E103
:1000F0002093E4002FEF3FE73093DF002093DE00F2
:1001000020EB2093DB001092ED001092EE0048EF00
:100110005FEF6FEF7FEF4093F4005093F500609333
:10012000F6007093F700A0E0B0E0880F991FAA1FB7
:10013000BB1F880F991FAA1FBB1F880F991FAA1FDB
:10014000BB1F8093F0009093F100A093F200B09356
:10015000F30080E18093EF000DEE10E02EEE30E032
:10016000C4EFD0E0A0EFB0E00F2EFFEEEF2EF12CA9
:10017000F02DF8018083F9011082488359836A8346
:100180007B831D921D921D921C921397F701108282
:10019000805F803F71F782E08093D800DF91CF913C
:1001A0001F910F91FF90EF9008953091ED002091F5
:1001B00052012E30A8F5A0E5B1E01296EC9112970D
:1001C0002BE0E29FF0011124E05BFE4F94838383D8
:1001D00012962C9112972F5F12962C9312971296CB
:1001E0002C912295207F2093ED00A0E0B0E0880FB5
:1001F000991FAA1FBB1F880F991FAA1FBB1F880F1B
:10020000991FAA1FBB1F8093F0009093F100A09349
:10021000F200B093F300EFEEF0E08081806880831D
:100220003093ED000895209150013091510181E00B
:10023000232B09F480E008958F929F92AF92BF9292
:10024000CF92DF92EF92FF920F931F93CF93DF93A2
:1002500020915201222309F45DC020915001309178
:10026000510120FD0EC0A0E001E010E0E0E5F1E06A
:100270004AC02081318120233123232B09F443C03C
:1002800003C0A0E001E010E00F2EF0E5EF2EF1E05A
:10029000FF2EF02D6801C094D0942BE0A29FD001D6
:1002A0001124A05BBE4F5D01E3E0AE0EB11CED0179
:1002B0002596F701208131812C213D213183208336
:1002C000F50120813181FC01318320832881FA01ED
:1002D00020832881222379F0912C292D30E0FD0103
:1002E000E20FF31F8680260F371FF9018082939457
:1002F0002881921690F3F701208131812023312348
:10030000232BB9F607C0000F111FAF5F2281A21780
:1003100008F4AFCFDF91CF911F910F91FF90EF9035
:10032000DF90CF90BF90AF909F908F9008951F92D5
:100330000F920FB60F9211240BB60F922F933F938B
:100340004F936F937F938F939F93AF93BF93CF936D
:10035000DF93EF93FF93EDEEF0E040811082809108
:10036000EE0086FF43C0E6E0F1E0918180819817BE
:10037000E9F16091070170E0FB01EE0FFF1FEE0F46
:10038000FF1FEE0FFF1FE60FF71FEA5FFE4F828190
:10039000882379F080E09F01CAEFD0E0DF01129658
:1003A000F901E80FF11D938198838F5F9C91891764
:1003B000B8F3FB01EE0FFF1FEE0FFF1FEE0FFF1F45
:1003C0006E0F7F1FFB01EA5FFE4F82818065809385
:1003D000EF0080910701873030F4E6E0F1E08181A1
:1003E0008F5F818361C0109207015EC090915201BE
:1003F0009295907F903108F457C080E18093ED0092
:100400008091EE0085FD0BC0E0E1CDEED0E0AEEED8
:10041000B0E046C0E8838C9185FF42C001C0E0E1B6
:10042000A0E5B1E02D913C911197E295EF70E1507C
:1004300081E090E00E2E02C0880F991F0A94E2F727
:10044000822B932B11969C938E938091EF008F704B
:100450006E2F70E09BE0E99FF0011124E05BFE4FFE
:10046000858385818823B1F080E0CAEFD0E09BE0EE
:10047000969F9001979F300D1124205B3E4FD9012C
:1004800015969881F901E80FF11D96838F5F9C9175
:100490008917B8F3EFEEF0E080818068808304C0B4
:1004A000E05F9E1708F0B6CF1092EE004093ED008B
:1004B000FF91EF91DF91CF91BF91AF919F918F917C
:1004C0007F916F914F913F912F910F900BBE0F90A5
:1004D0000FBE0F901F90189580E090E04FEF5FEFF8
:1004E0009C012F5F3F4FF901EE0FFF1FE351FE4FBD
:1004F00051834083880F991FFC01E150FE4F5183C7
:100500004083C9012830310559F78FEE91E090936F
:10051000EE018093ED018FEF91E00895E091ED0100
:10052000F091EE0190E0880F991FE80FF91F718399
:10053000608308958091ED019091EE018F5E91406E
:1005400049F48FEF91E09093EE018093ED018FEEEF
:1005500091E008958FEE91E09093EE018093ED018C
:100560008FEF91E00895AC0180910F02882321F173
:10057000809110029091110248175907A1F090E064
:10058000AFE0B2E013C0E92FF0E0EE0FFF1FEE0F77
:10059000FF1FEE0FFF1FE15FFD4F21813281241706
:1005A000350721F401C090E0892F08959F5F2C91B9
:1005B000921748F38FEF08958FEF0895CF93DF934D
:1005C0009C0190910F029E30B0F4E901C901CBDF8C
:1005D00088238CF4AFE0B2E0EC9181E08E0F8C9335
:1005E000F0E0EE0FFF1FEE0FFF1FEE0FFF1FE15FAA
:1005F000FD4FD283C183DF91CF9108951F93CF9395
:10060000DF93EB01142FAFDF8F3F01F1113069F061
:1006100018F0123099F01AC098E08902F001112404
:10062000E15FFD4FD483C38311C098E08902F001DC
:100630001124E15FFD4FD683C58308C098E089028D
:10064000F0011124E15FFD4FD087C783DF91CF9187
:100650001F9108950F931F93CF93DF93EB01142FF6
:10066000022F81DF8F3F09F467C0013031F120F0A4
:10067000023009F442C060C0082E000C990BFC0146
:10068000EE0FFF1FEE0FFF1FEE0FFF1FE15FFD4F8D
:1006900023813481232B09F44FC0880F991F880FC1
:1006A000991F880F991FFC01E15FFD4F0380F481C2
:1006B000E02D612FCE0109953FC0082E000C990B4B
:1006C000FC01EE0FFF1FEE0FFF1FEE0FFF1FE15F9C
:1006D000FD4F25813681232B79F1880F991F880FD3
:1006E000991F880F991FFC01E15FFD4F0580F6817E
:1006F000E02D612FCE0109951FC0082E000C990B2B
:10070000FC01EE0FFF1FEE0FFF1FEE0FFF1FE15F5B
:10071000FD4F27813085232B79F0880F991F880F93
:10072000991F880F991FFC01E15FFD4F0780F0853D
:10073000E02D612FCE010995DF91CF911F910F918F
:10074000089588E084B98FEF8EBD109287021092D1
:1007500086021092850210928402109281021092F9
:10076000800280EC8CBD089590938702809386026E
:1007700061506093850210928402FC0180818EBDDD
:100780000895909381028093800208951F920F92A2
:100790000FB60F9211240BB60F922F933F934F93E6
:1007A0005F936F937F938F939F93AF93BF93EF93D9
:1007B000FF9380918402811107C0E0918202F09141
:1007C0008302309709F00995909184028091850207
:1007D000981730F4809184028F5F8093840209C05F
:1007E00010928402E0918002F0918102309709F02A
:1007F00009958091860290918702009739F02091A7
:100800008402FC01E20FF11D80818EBDFF91EF910A
:10081000BF91AF919F918F917F916F915F914F9118
:100820003F912F910F900BBE0F900FBE0F901F9016
:10083000189580DE68E098CF0895FC01809105014D
:1008400097B1982B97B938B1909105012091050186
:1008500090959323922B98B96081718183E05ECE4D
:100860000895FC01809105019091040198279093CF
:10087000040138B1909105012091040190959323D2
:10088000922B98B96081718183E048CE0895FC0174
:100890008091030197B1982B97B938B190910301DA
:1008A0002091030190959323922B98B960817181D7
:1008B00084E034CE0895FC018091030190910201FF
:1008C00098279093020138B1909103012091020181
:1008D00090959323922B98B96081718184E01ECE0C
:1008E0000895FC018091010197B1982B97B938B117
:1008F000909101012091010190959323922B98B939
:100900006081718181E00ACE0895FC01809101012E
:100910009091000198279093000138B190910101C6
:100920002091000190959323922B98B96081718159
:1009300081E0F4CD0895CF93DF93CDB7DEB72D9747
:100940000FB6F894DEBF0FBECDBF8FEF9FE79A833F
:100950008983F7DEC1DD68E007DF89E194E011DF1C
:1009600080E090E0B5DB80E190E01FDC80E190E08A
:1009700025DE40E06DE174E080E190E03FDE41E0A3
:1009800061E374E080E190E039DE20E042E0BE0106
:100990006F5F7F4F80E190E05DDE80E290E005DCFC
:1009A00080E290E00BDE40E067E474E080E290E0FB
:1009B00025DE41E06BE574E080E290E01FDE20E0A0
:1009C00042E0BE016F5F7F4F80E290E043DE80E453
:1009D00090E0EBDB80E490E0F1DD40E061E774E083
:1009E00080E490E00BDE41E065E874E080E490E0B4
:1009F00005DE20E042E0BE016F5F7F4F80E490E0C3
:100A000029DE789411C0AE01435F5F4FBE016B5F7A
:100A10007F4FCE01039610DC21E04D85BE016B5F58
:100A20007F4F8B819C8116DEFEDB8111ECCFFCCFEA
:040A3000F894FFCF68
:060A3400040402020101AE
:00000001FF
