S01600006875332D6174393063616E3132382E73726563C6
S113000049C0000064C0000062C0000060C000007D
S11300105EC000005CC000005AC0000058C0000070
S113002056C0000054C0000052C0000050C0000080
S11300304EC000004CC000004AC0000048C0000090
S113004046C0000044C000006FC1000040C0000072
S11300509AC300003CC000003AC0000038C0000051
S113006036C0000034C0000032C0000030C00000C0
S11300702EC000002CC000002AC0000028C00000D0
S113008026C0000024C0000022C0000020C00000E0
S11300901EC0000011241FBECFEFD0E1DEBFCDBFD4
S11300A011E0A0E0B1E0E6EDFCE000E00BBF02C02F
S11300B007900D92A031B107D9F722E0A0E1B1E099
S11300C001C01D92A239B207E1F704D502C698CF48
S11300D0EF92FF920F931F93CF93DF9321E020932E
S11300E0D80022E02093E20024E02093E30023E1FF
S11300F02093E4002FE72093DF002FEF2093DE000E
S113010020EB2093DB001092ED001092EE004FEFF5
S11301105FEFBA014093F4005093F5006093F6004A
S11301207093F700A0E0B0E0880F991FAA1FBB1FCF
S1130130880F991FAA1FBB1F880F991FAA1FBB1FD7
S11301408093F0009093F100A093F200B093F30039
S113015080E18093EF000DEE10E02EEE30E0C4EF6E
S1130160D0E0A0EFB0E00F2EFFEEEF2EF12CF02D3B
S1130170F8018083F9011082488359836A837B8361
S11301801D921D921D921C921397F7011082805F9D
S1130190803F71F782E08093D800DF91CF911F9167
S11301A00F91FF90EF9008953091ED0020915C0144
S11301B02E3098F5AAE5B1E01296EC9112972BE057
S11301C0E29FF0011124E65AFE4F94838383129632
S11301D02C9112972F5F12962C93129712962C91B2
S11301E02295207F2093ED00A0E0B0E0880F991FB6
S11301F0AA1FBB1F880F991FAA1FBB1F880F991F17
S1130200AA1FBB1F8093F0009093F100A093F2000B
S1130210B093F30080E98093EF003093ED000895EC
S113022020915A0130915B0181E0232B09F480E095
S113023008958F929F92AF92BF92CF92DF92EF92E6
S1130240FF920F931F93CF93DF9320915C0122239E
S113025009F45DC020915A0130915B0120FD0EC06C
S1130260A0E001E010E0EAE5F1E04AC0208131813C
S113027020233123232B09F443C003C0A0E001E071
S113028010E00F2EFAE5EF2EF1E0FF2EF02D6801BD
S1130290C094D0942BE0A29FD0011124A65ABE4F43
S11302A05D01E3E0AE0EB11CED012596F70120815E
S11302B031812C213D2131832083F501208131813D
S11302C0FC01318320832881FA01208328812223A1
S11302D079F0912C292D30E0FD01E20FF31F868087
S11302E0260F371FF901808293942881921690F388
S11302F0F7012081318120233123232BB9F607C054
S1130300000F111FAF5F2281A21708F4AFCFDF9156
S1130310CF911F910F91FF90EF90DF90CF90BF90FE
S1130320AF909F908F9008951F920F920FB60F92E7
S113033011240BB60F922F933F934F936F937F9398
S11303408F939F93AF93BF93CF93DF93EF93FF93D9
S1130350EDEEF0E0408110828091EE0086FF43C014
S1130360E0E1F1E0918180819817E9F16091110158
S113037070E0FB01EE0FFF1FEE0FFF1FEE0FFF1FDC
S1130380E60FF71FE05FFE4F8281882379F080E05B
S11303909F01CAEFD0E0DF011296F901E80FF11DC9
S11303A0938198838F5F9C918917B8F3FB01EE0FBB
S11303B0FF1FEE0FFF1FEE0FFF1F6E0F7F1FFB01CE
S11303C0E05FFE4F828180658093EF008091110190
S11303D0873030F4E0E1F1E081818F5F818361C097
S11303E0109211015EC090915C019295907F9031C2
S11303F008F457C080E18093ED008091EE0085FD04
S11304000BC0E0E1CDEED0E0AEEEB0E046C0E88354
S11304108C9185FF42C001C0E0E1AAE5B1E02D91D5
S11304203C911197E295EF70E15081E090E00E2E3F
S113043002C0880F991F0A94E2F7822B932B11961E
S11304409C938E938091EF008F706E2F70E09BE0F1
S1130450E99FF0011124E65AFE4F858385818823A4
S1130460B1F080E0CAEFD0E09BE0969F9001979FA7
S1130470300D1124265A3E4FD90115969881F90161
S1130480E80FF11D96838F5F9C918917B8F3EFEE07
S1130490F0E080818068808304C0E05F9E1708F0EC
S11304A0B6CF1092EE004093ED00FF91EF91DF91F3
S11304B0CF91BF91AF919F918F917F916F914F9108
S11304C03F912F910F900BBE0F900FBE0F901F9076
S11304D0189580E090E04FEF5FEF9C012F5F3F4F56
S11304E0F901EE0FFF1FE950FE4F51834083880F3F
S11304F0991FFC01E75FFD4F51834083C9012830F8
S1130500310559F789EF91E09093F8018093F70151
S113051089E092E00895E091F701F091F80190E00C
S1130520880F991FE80FF91F7183608308958091E4
S1130530F7019091F801895F914049F489E092E0D4
S11305409093F8018093F70189EF91E0089589EF82
S113055091E09093F8018093F70189E092E0089587
S1130560AC0180911902882321F180911A029091A3
S11305701B0248175907A1F090E0A9E1B2E013C0AB
S1130580E92FF0E0EE0FFF1FEE0FFF1FEE0FFF1F2E
S1130590E75EFD4F218132812417350721F401C024
S11305A090E0892F08959F5F2C91921748F38FEF65
S11305B008958FEF0895CF93DF939C0190911902D2
S11305C09E30B0F4E901C901CBDF88238CF4A9E1A2
S11305D0B2E0EC9181E08E0F8C93F0E0EE0FFF1F00
S11305E0EE0FFF1FEE0FFF1FE75EFD4FD283C183A7
S11305F0DF91CF9108951F93CF93DF93EB01142FD5
S1130600AFDF8F3F01F1113069F018F0123099F02B
S11306101AC098E08902F0011124E75EFD4FD483EB
S1130620C38311C098E08902F0011124E75EFD4FF5
S1130630D683C58308C098E08902F0011124E75EDF
S1130640FD4FD087C783DF91CF911F9108950F93FA
S11306501F93CF93DF93EB01142F022F81DF8F3F82
S113066009F467C0013031F120F0023009F442C0CE
S113067060C0082E000C990BFC01EE0FFF1FEE0F5B
S1130680FF1FEE0FFF1FE75EFD4F23813481232BF5
S113069009F44FC0880F991F880F991F880F991F5D
S11306A0FC01E75EFD4F0380F481E02D612FCE0154
S11306B009953FC0082E000C990BFC01EE0FFF1F9B
S11306C0EE0FFF1FEE0FFF1FE75EFD4F2581368102
S11306D0232B79F1880F991F880F991F880F991F71
S11306E0FC01E75EFD4F0580F681E02D612FCE0110
S11306F009951FC0082E000C990BFC01EE0FFF1F7B
S1130700EE0FFF1FEE0FFF1FE75EFD4F27813085C1
S1130710232B79F0880F991F880F991F880F991F31
S1130720FC01E75EFD4F0780F085E02D612FCE01CF
S11307300995DF91CF911F910F91089588E084B9B5
S11307408FEF8EBD109291021092900210928F0240
S113075010928E0210928B0210928A0280EC8CBD51
S113076008959093910280939002615060938F0258
S113077010928E02FC0180818EBD089590938B02AD
S113078080938A0208951F920F920FB60F9211243C
S11307900BB60F922F933F934F935F936F937F9377
S11307A08F939F93AF93BF93EF93FF9380918E02A8
S11307B0811107C0E0918C02F0918D02309709F00D
S11307C0099590918E0280918F02981730F4809150
S11307D08E028F5F80938E0209C010928E02E09188
S11307E08A02F0918B02309709F00995809190026A
S11307F090919102009739F020918E02FC01E20F52
S1130800F11D80818EBDFF91EF91BF91AF919F91BA
S11308108F917F916F915F914F913F912F910F90A5
S11308200BBE0F900FBE0F901F90189580DE68E0EE
S113083098CF0895FC0180910F0197B1982B97B937
S113084038B190910F0120910F0190959323922B31
S113085098B96081718183E05ECE0895FC01809136
S11308600F0190910E01982790930E0138B1909149
S11308700F0120910E0190959323922B98B96081DA
S1130880718183E048CE0895FC0180910D0197B1F8
S1130890982B97B938B190910D0120910D01909545
S11308A09323922B98B96081718184E034CE0895AA
S11308B0FC0180910D0190910C01982790930C01FB
S11308C038B190910D0120910C0190959323922BB6
S11308D098B96081718184E01ECE0895FC018091F5
S11308E00B0197B1982B97B938B190910B012091D6
S11308F00B0190959323922B98B96081718181E0CB
S11309000ACE0895FC0180910B0190910A01982769
S113091090930A0138B190910B0120910A019095AE
S11309209323922B98B96081718181E0F4CD08956D
S1130930FC018091090197B1982B97B938B1909136
S113094009012091090190959323922B98B9608114
S1130950718181E0E0CD0895FC01809109019091BD
S1130960080198279093080138B1909109012091CA
S1130970080190959323922B98B96081718181E04D
S1130980CACD0895FC018091070197B1982B97B9BE
S113099038B1909107012091070190959323922BF0
S11309A098B96081718181E0B6CD0895FC01809190
S11309B007019091060198279093060138B1909110
S11309C007012091060190959323922B98B9608199
S11309D0718181E0A0CD0895FC018091050197B15A
S11309E0982B97B938B19091050120910501909504
S11309F09323922B98B96081718181E08CCD089505
S1130A00FC018091050190910401982790930401C1
S1130A1038B1909105012091040190959323922B74
S1130A2098B96081718181E076CD0895FC0180914F
S1130A30030197B1982B97B938B190910301209194
S1130A40030190959323922B98B96081718181E081
S1130A5062CD0895FC0180910301909102019827D1
S1130A609093020138B19091030120910201909575
S1130A709323922B98B96081718181E04CCD0895C4
S1130A80FC018091010197B1982B97B938B19091ED
S1130A9001012091010190959323922B98B96081D3
S1130AA0718181E038CD0895FC018091010190911C
S1130AB0000198279093000138B190910101209191
S1130AC0000190959323922B98B96081718181E004
S1130AD022CD0895CF93DF93CDB7DEB72D970FB610
S1130AE0F894DEBF0FBECDBF8FEF9FE79A83898353
S1130AF025DEEFDC68E035DE86E194E03FDE80E071
S1130B0090E0E6DA88E090E04FDB88E090E053DDA7
S1130B1040E06AE174E088E090E06DDD41E06EE27F
S1130B2074E088E090E067DD20E042E0BE016F5FA2
S1130B307F4F88E090E08BDD80E190E035DB80E161
S1130B4090E039DD40E064E474E080E190E053DD5E
S1130B5041E068E574E080E190E04DDD20E042E0B2
S1130B60BE016F5F7F4F80E190E071DD80E290E035
S1130B701BDB80E290E01FDD40E06EE674E080E283
S1130B8090E039DD41E062E874E080E290E033DD3A
S1130B9020E042E0BE016F5F7F4F80E290E057DDCE
S1130BA080E490E001DB80E490E005DD40E068E96A
S1130BB074E080E490E01FDD41E06CEA74E080E4DE
S1130BC090E019DD20E042E0BE016F5F7F4F80E4DA
S1130BD090E03DDD80E890E0E7DA80E890E0EBDC4F
S1130BE040E062EC74E080E890E005DD41E066ED11
S1130BF074E080E890E0FFDC20E042E0BE016F5F3B
S1130C007F4F80E890E023DD80E091E0CDDA80E062
S1130C1091E0D1DC40E06CEE74E080E091E0EBDC4C
S1130C2041E060E075E080E091E0E5DC20E042E056
S1130C30BE016F5F7F4F80E091E009DD80E092E0CC
S1130C40B3DA80E092E0B7DC40E066E175E080E092
S1130C5092E0D1DC41E06AE275E080E092E0CBDC36
S1130C6020E042E0BE016F5F7F4F80E092E0EFDC66
S1130C7080E094E099DA80E094E09DDC40E060E478
S1130C8075E080E094E0B7DC41E064E575E080E085
S1130C9094E0B1DC20E042E0BE016F5F7F4F80E072
S1130CA094E0D5DC789411C0AE01435F5F4FBE0180
S1130CB06B5F7F4FCE010396BCDA21E04D85BE0108
S1130CC06B5F7F4F8B819C81C2DCAADA8111ECCFF0
S1090CD0FCCFF894FFCFF5
S1130CD6808040402020101008080404020201010C
S9030000FC
