:100000000C944A000C9472000C9472000C947200D0
:100010000C9472000C9472000C9472000C94720098
:100020000C9472000C9472000C9472000C94720088
:100030000C9472000C9472000C9472000C94720078
:100040000C9472000C9472000C9472000C94720068
:100050000C9472000C9472000C9472000C94720058
:100060000C9472000C9472000C9472000C94720048
:100070000C9472000C9472000C9472000C94720038
:100080000C9472000C9472000C9472000C94720028
:100090000C94720011241FBECFEFD0E1DEBFCDBFA4
:0C00A0000E9456000C945400F894FFCF0E
:1000AC008FEF87B930E021E051E040E080E492E44A
:1000BC00AFE0B0E00197A109B109E1F7203829F0D0
:1000CC00213031F0332321F001C0352F269502C0A9
:0800DC00220F342F28B9EACFEE
:0400E4000C94000078
:00000001FF
